:020000040800F2
:100000000000032035DF000885DF000885DF0008D9
:1000100085DF000885DF000885DF0008000000009C
:100020000000000000000000000000004162000825
:1000300085DF000800000000D162000881D80008B8
:1000400085DF000885DF000885DF000885DF000800
:1000500085DF000885DF000895D8000885DF0008E7
:1000600085DF000885DF000885DF000885DF0008E0
:100070009DD8000885DF0008A9D8000885DF0008A2
:1000800085DF000885DF000885DF000885DF0008C0
:1000900085DF000885DF000885DF000885DF0008B0
:1000A00085DF000885DF000885DF000885DF0008A0
:1000B00085DF000885DF000885DF000885DF000890
:1000C00085DF000885DF000885DF000885DF000880
:1000D00085DF000885DF000885DF0008B5D8000847
:1000E000C1D8000885DF000885DF000885DF00082B
:1000F00085DF000885DF000885DF000885DF000850
:1001000085DF000885DF000885DF000885DF00083F
:1001100085DF000885DF0008C9D8000885DF0008F2
:1001200085DF000885DF000885DF000885DF00081F
:1001300085DF0008D5D8000885DF000885DF0008C6
:1001400085DF000885DF000885DF0008E1D80008AA
:1001500085DF000885DF000885DF000885DF0008EF
:1001600085DF000885DF000885DF000885DF0008DF
:1001700085DF000885DF000885DF0008000000003B
:1001800085DF000885DF000885DF000885DF0008BF
:1001900085DF000885DF000885DF000885DF0008AF
:0C01A00085DF000885DF000885DF00080F
:1001B00010B5054C237833B9044B13B10448AFF3A1
:1001C00000800123237010BD90000020000000007B
:1001D000E0F0000808B5034B1BB103490348AFF337
:1001E000008008BD0000000094000020E0F000083E
:1001F00001F0FF01102A2BDB10F0070F08D010F8D8
:10020000013B013A8B422DD010F0070F42B3F6D1DB
:10021000F0B441EA012141EA014122F007047FF0F4
:1002200000070023F0E80256083C85EA010586EA4B
:10023000010685FA47F5A3FA87F586FA47F6A5FA87
:1002400087F68EB9EED1F0BC01F0FF0102F0070293
:1002500032B110F8013B013A83EA010313B1F8D13E
:100260000020704701387047002D06BF354603381F
:10027000073815F0010F07D1013015F4807F02BF58
:10028000013015F4C03F0130F0BC0138704700BFA9
:1002900053B94AB9002908BF00281CBF4FF0FF31ED
:1002A0004FF0FF3000F088B9ADF1080C6DE904CED5
:1002B00000F006F8DDF804E0DDE9022304B0704741
:1002C0002DE9F047089D8E4604468846002B4AD10A
:1002D0008A42174662D9B2FA82F64EB1C6F12003BD
:1002E00001FA06F820FA03F3B74043EA0808B440DD
:1002F0004FEA174E1FFA87FCB8FBFEF1230C0EFBEA
:10030000118843EA084301FB0CF29A4209D9FB1811
:1003100001F1FF3080F0EA809A4240F2E780023932
:100320003B449A1AA3B2B2FBFEF00EFB102243EA42
:10033000024300FB0CFC9C4509D9FB1800F1FF327D
:1003400080F0D6809C4540F2D3803B44023840EA9E
:100350000140A3EB0C0300211DB1F3400022C5E9CD
:100360000032BDE8F0878B4205D90DB1C5E9000127
:1003700000210846F5E7B3FA83F1002946D1734519
:1003800002D3824200F20581841A6EEB030201203F
:100390009046002DE5D0C5E90048E2E7002A00F0CC
:1003A0009080B2FA82F6002E40F0A4808A1A030CE4
:1003B0004FEA174E80B2BCB20121B2FBFEFC0EFB2D
:1003C0001C2243EA024304FB0CF29A4207D9FB18B1
:1003D0000CF1FF3802D29A4200F2E080C4469B1A28
:1003E000B3FBFEF20EFB123340EA034302FB04F4BC
:1003F0009C4207D9FB1802F1FF3002D29C4200F266
:10040000CA8002461B1B42EA0C40A5E7C1F1200648
:100410008B4022FA06F71F430EFA01F420FA06F386
:100420002EFA06FE4FEA1749234300FA01F81FFA95
:1004300087FCBEFBF9F01C0C09FB10EE44EA0E44ED
:1004400000FB0CFEA64502FA01F209D93C1900F1A5
:10045000FF3A80F09C80A64540F2998002383C44E7
:10046000A4EB0E041FFA83FEB4FBF9F309FB13445B
:100470004EEA044403FB0CFCA44508D93C1903F1E3
:10048000FF3E80F08280A4457FD9023B3C4443EA92
:100490000040A4EB0C04A0FB02EC64457346E1466B
:1004A00062D35FD05DB1B8EB030264EB090404FAD8
:1004B00006F622FA01F31E43CC40C5E90064002190
:1004C0004FE7B1FBF2FC010C41EA0E4180B240EA79
:1004D00001423B4638463C46B846BE462026B1FB64
:1004E000F7F1A2EB080241EA0C4166E7014618E782
:1004F00010462CE7C6F120022EFA02F3B740B140B5
:1005000020FA02F24FEA174E0A43B3FBFEF8BCB2E0
:100510000EFB1833110C41EA034108FB04F9B0400B
:1005200089454FEA104380B23ED9791808F1FF3C63
:1005300001D289451FD8A1EB0901B1FBFEF909FBE6
:1005400004F80EFB191192B242EA0142424529D247
:10055000BA1809F1FF31C4D24245C2D2A9F1020151
:100560003A44BEE7F0459DD2BEEB02036CEB070CAC
:100570000138E14696E7A7EB09094944A8F1020CC6
:10058000B1FBFEF909FB04F8DBE773467FE7504651
:1005900066E70846FDE63B44023A33E7ACF1020C5D
:1005A0003B441CE749469CE7A1EB0901C446B1FB6B
:1005B000FEF909FB04F8C4E7704700BF08B50B4B10
:1005C0001A6842F400721A601A6842F480621A6073
:1005D0001A6842F480721A60032000F02FF800209D
:1005E0000DF010F90DF024F8002008BD003C024089
:1005F000034A044B11681B780B441360704700BF1B
:10060000AC00002000000020014B1868704700BFBC
:10061000AC00002038B50446FFF7F6FF631C1CBF92
:10062000054B1B78054618BFE418FFF7EDFF431B89
:10063000A342FAD338BD00BF000000200749CA68B2
:1006400022F4E0620302120403F4E063120C134389
:1006500043F0BF6343F40033CB60704700ED00E02C
:10066000164B30B5DC68C4F30224C4F10703251D22
:10067000042B28BF0423062D4FF0FF358CBF033C0D
:10068000002405FA03F321EA0303A54022EA050248
:10069000A340002843EA0203ACBF00F16040084ACF
:1006A0004FEA0313B8BF00F00F00DBB2AABF00F59A
:1006B0006140135480F8003330BD00BF00ED00E00E
:1006C00014ED00E04109044A00F01F0001238340BB
:1006D00042F82130704700BF00E100E00138B0F17E
:1006E000807F0BD24FF0E023054A5861F02182F859
:1006F00023100020072298611A617047012070477B
:1007000000ED00E04FF0E02304281A690CBF42F02E
:10071000040222F004021A6170470000036810B559
:10072000084C0246D9B210391820B1FBF0F0205C19
:10073000D06523F47F7020F003005F2988BF043068
:10074000906510BD3CF1000870B50446FFF75CFFF2
:100750000546002C60D0002384F834302268022340
:1007600084F83530136823F001031360226813689E
:10077000D8072ED413683248A1691840D4E901354E
:100780002B43E5682B4325692B4365692B43E569BA
:100790000B432B43256A2B430343606A042802BFA3
:1007A000D4E90B5635432B4313605369042823F0D7
:1007B000070343EA000335D1A06AE56A03438DB31A
:1007C00091B9012820D030F002012BD1E90129D5BF
:1007D0001DE0FFF719FF401B0528C7D92023032080
:1007E000636584F8350070BDB1F5005F16D103284C
:1007F00018D801A151F820F00F080008CD07000813
:100800000F08000809080008B5F1C07F0AD140238D
:100810006365012384F835300120E4E70228F6D926
:100820000328D3D053612046FFF778FFE26D3F23C2
:100830009340836000200123606584F83530D2E75F
:100840003F8010F070B590F83440866D012C34D0A4
:10085000012480F8344090F83540012C4FF000041A
:1008600029D1022580F8355044650468256825F4AF
:100870008025256063608368402B0EBFA260A16065
:10088000E260C26D08BFE1603F239340B36023681C
:1008900043F016032360636943F080036361036CD4
:1008A0001BB1236843F008032360236843F001036E
:1008B0002360002070BD80F834400220FAE790F8F1
:1008C0003530022B03D08023436501207047026836
:1008D000052380F83530136823F0010313600020EE
:1008E00070470000F7B5002301935C4B856D1F68CE
:1008F000C36D2E6808229A40324204460CD001682B
:100900000868400708D5086820F004000860AA605D
:10091000626D42F00102626501229A40324208D0C3
:1009200021684969090641BFAA60626D42F002026E
:10093000626504229A40324208D02168096888071B
:1009400041BFAA60626D42F00402626510229A40C3
:10095000324210D02368196809070CD5AA601A68BA
:10096000500337D51B68190301D4236C00E0A36C36
:100970000BB120469847E16D20228A4032423AD09E
:1009800023681868C60636D5AA6094F83520052A6B
:100990001A6827D122F016021A605A6922F08002E2
:1009A0005A61226C0AB9A26C1AB11A6822F00802C4
:1009B0001A603F238B40AB60002384F8343001235E
:1009C00084F83530236D002B45D0204603B0BDE8B8
:1009D000F04018471A68D2055EBF1A6822F0080274
:1009E0001A60C2E7500327D51B68190331D4636C22
:1009F0000BB120469847636D6BB3636DDA0719D569
:100A000022684FF41653B7FBF3F7052384F835300B
:100A1000136823F001031360019B0133BB42019370
:100A200002D81368DB07F7D4002384F8343001239D
:100A300084F83530E36CC6E71A6812F4807208D186
:100A4000196821F010011960012384F8342084F81A
:100A50003530E36BCCE703B0F0BD00BF30000020C1
:100A6000074B82B01B684FF4FA52B3FBF2F30193C9
:100A700000BF019B5A1E0192002BF9D102B07047B2
:100A80003000002007B500230193036803F580536D
:100A90009A6942F480129A619B690193FFF7E0FF23
:100AA0000368019A03F580539A6103B05DF804FB73
:100AB00070B5044629B14FF480434FF40062C0E999
:100AC0000232D4E902321343E2692168B2FA82F2B7
:100AD0005209086843EA82232B4A0240134343F435
:100AE00000730B6001200D68FFF794FD236840221E
:100AF0001D6001205A605D68FFF78CFD23685D6012
:100B000000259D60DD609A6922F0BE021204120C7D
:100B100042F080029A6101209E69FFF77BFD236805
:100B200001209E61DD61DD69FFF774FD2268174BCE
:100B3000D56102F58052012091690B4043F00873A2
:100B400043F0040393619569FFF764FD2368104A3D
:100B500003F5805301209D611A601D68FFF75AFD5F
:100B60002368A26903F58053012A1D6001BFDA6979
:100B700042F4803242F04002DA616269054B9188AA
:100B8000196412685A6470BD0F8120FF233FDEF89C
:100B90008020C10200800240F0B5044690F8450074
:100BA00001284FF002001AD0012584F8455084F83E
:100BB0004400E16201F1200000254FF4801740F26B
:100BC000F45C03F1FF3E9D420AD1236803F5805394
:100BD00000201961012384F8443084F84500F0BDF9
:100BE0000CFB052640F8186CE66940F8207C2EB90D
:100BF00050F8206C46F4400640F8206CAE4594BF97
:100C00000E46064640F8146C01352030DBE72DE92E
:100C1000F041044690F8450001284FF002001CD036
:100C2000012584F8455084F84400A16201F12000B8
:100C300000254FF0004644F2F45740F2F45C03F113
:100C4000FF3E9D420BD1236803F580530020D960FD
:100C5000012384F8443084F84500BDE8F0810CFBA2
:100C6000052840F8188CAE4594BF8846804640F869
:100C7000206C40F81C7C40F8148C01352030E0E7F3
:100C8000F0B590F84530012B02464FF002000BD032
:100C9000012382F8453082F8440031B982F84430AB
:100CA000002382F845300120F0BDD36A186800287F
:100CB00001DA1223F2E740F2F454A1422ED9B1FB3B
:100CC000F4F004FB10143CB30130234C01F2F45156
:100CD00004FB0011C1F30C01002440F2F456471E3E
:100CE0001D6825F040551D601CB91D6845F08055F4
:100CF0001D60A74208BF1D685E6004BF45F0005537
:100D00001D601D6808BF5960013445F00045A042D0
:100D10001D60DB68E4D10DE00128D6D1186840F0F1
:100D200040501860C1F30C015960196841F000414E
:100D30001960DB68D362136803F58053002059699A
:100D4000490741BF0421596100215960012382F8FC
:100D5000443082F84500A7E70CFAFFFF30B590F861
:100D60004520012A03464FF0020039D0012283F8C2
:100D7000440083F8452005209A6A1168002901DBA8
:100D8000013806D10120002283F8440083F8452071
:100D900026E01168D46801F44071B1F5007F04D1F8
:100DA0001A63012199639C62E6E71568996B15F453
:100DB000407F01F10101F5D0012908BF1A63C3E9A1
:100DC0000D211268C2F30D42043ADA631A6B92687D
:100DD0001A64002001229C6283F8442083F84500B5
:100DE00030BD70477047026802F5805238B55569CA
:100DF00015F04005044625D00CF086F8236803F56D
:100E0000805340225A61012384F84430002384F83F
:100E10004530236803F580534FF480325A615B6993
:100E20001B040ED52046FFF7DDFF236803F5805332
:100E30004FF400425A61012384F84430002384F8BF
:100E4000453038BD5369DA07E3D5FFF7CAFF236899
:100E500003F5805301225A6184F8442084F84550F8
:100E6000D7E7F8B590F84430822B0646154630D0C7
:100E70000268048A822380F844301369E4028901FD
:100E800001F4F861A4B203F01C030C431C4344F0CA
:100E900001041461FFF7B8FB074614F0010007D105
:100EA00033685B699BB22B60012386F844300CE009
:100EB000FFF7AAFBC01BB0F5803F07D3012386F8DC
:100EC0004430002386F845300320F8BD33681C69A0
:100ED000E3E70220F9E770B590F84430422B05466D
:100EE0002ED0422380F844302C8A0368E40218692B
:100EF000890101F4F861A4B200F01C000C43044322
:100F000092B244F003045A611C61FFF77DFB064670
:100F100014F0010003D1012385F844300CE0FFF701
:100F200073FB801BB0F5803F07D3012385F8443065
:100F3000002385F84530032070BD2B681C69E7E766
:100F40000220F9E7F7B500230093044600284AD0B1
:100F500090F8443003F0FF021BB980F845200BF0F5
:100F60006BFF00230193664B5A6C42F480425A6433
:100F70005B6C03F480430193019B624B5A6822F43B
:100F800000025A605A68216A0A435A60236803F5CE
:100F900080531A6842F001021A60FFF735FB0546DC
:100FA000236803F580521268D00720D41D6901F030
:100FB0009FF8554B554A0344934225F01C0524D213
:100FC00045F0080523684FF400421D6100212046CA
:100FD000FFF781FF054678B301212046FFF768FD42
:100FE000012384F844300125284603B0F0BDFFF703
:100FF0000BFB401BB0F5FA7FD2D9032384F84430B1
:10100000002384F845300325EEE7414B414A034471
:10101000934202D845F00C05D4E73F4B3F4A0344C6
:101020009342CFD33E4B3F4A0344934294BF45F093
:10103000040545F01005C5E7FF20FFF7EBFA6168EE
:1010400000294BD0FFF7E0FA41F2883706466A469E
:1010500001212046FFF705FFFFF7D6FA801BB842B3
:1010600005D901212046FFF723FD0123C6E7009B98
:101070005907ECD54FF4805200212046FFF72BFF93
:101080000028A9D1FFF7C0FA41F2883706466A4620
:1010900001212046FFF7E5FEFFF7B6FA801BB842B4
:1010A000DFD8009B9A06F2D56A4610212046FFF74A
:1010B000D8FE002890D1009AC2F38003DB02E360DF
:1010C000930756BF4FF48043A060A36000212046E1
:1010D000FFF7EEFC012384F8443085E7D4E90223CE
:1010E000520842EAD30292B22046FFF7F4FE0028EB
:1010F0007FF472AF40F6FF70FFF78CFAE6E700BFAF
:10110000003802400038014000D3CEFEC0E1E400C8
:1011100040F1E9FD3F787D0100796CFC005A6202E4
:10112000001F0AFA7FF0FA0237B590F84530012B1C
:101130004FF002042FD080F84440036800240125BA
:10114000019480F845501A6842F008021A601B6842
:101150000193FFF785FC0368019A1A6000941A68EE
:1011600042F004021A601B680093FFF779FC0368E1
:10117000009A1A60FFF786FC036803F580539A69AA
:1011800042F400529A619A6942F002029A6180F830
:10119000445080F84540204603B030BD2DE9F74F5C
:1011A000DFF8BC816C4A00234FF001090C6809FA92
:1011B00003FA0AEA04053AEA040440F0B4804C68F1
:1011C00024F0100EBEF1020F14D14FEAD30C00EB45
:1011D0008C0C03F0070BDCF820604FEA8B0B0F2719
:1011E00007FA0BF726EA07070E6906FA0BF63E43E5
:1011F000CCF82060D0F800B04FEA430C032606FA82
:101200000CF72BEA070BFE4304F0030707FA0CF771
:101210000EF1FF3E47EA0B07BEF1010F076010D841
:10122000876806EA070ECF6807FA0CF747EA0E0749
:101230008760476827EA0A0E27099F4047EA0E079A
:101240004760C76837408E6806FA0CF63E43C660B2
:10125000E60068D500260196D8F8446046F480463A
:10126000C8F84460D8F8446023F0030707F18047CA
:1012700006F4804607F59C37019603F0030C019EA7
:10128000D7F808E04FEA8C0C0F2606FA0CF62EEA87
:10129000060E324EB0424DD006F58066B0424BD0BD
:1012A00006F58066B04249D006F58066B04247D068
:1012B00006F58066B04245D006F58066B04243D060
:1012C00006F58066B04241D006F58066B0423FD058
:1012D00006F58066B0423DD006F58066B04214BF88
:1012E0000A26092606FA0CF646EA0E06BE601668BD
:1012F000EF4314F4803F0CBF3E402E431660566807
:1013000014F4003F0CBF3E402E435660966814F420
:10131000801F0CBF3E402E439660D668A40254BF87
:101320003E402E43D6600133102B7FF43FAF03B015
:10133000BDE8F08F0026D5E70126D3E70226D1E7E6
:101340000326CFE70426CDE70526CBE70626C9E727
:101350000726C7E70826C5E7003C01400000024019
:10136000003802400AB1816170470904FBE7436914
:101370005940416170470000044A5169014208B573
:1013800002D050610BF090FF08BD00BF003C01404F
:101390002DE9FF4105469DF828C095F890429DF83B
:1013A0002CE0BDF83080012C23D0012485F8904238
:1013B000282404FB0154D00902F07F0684F8383059
:1013C00084F8391084F83FE084F83A6084F83B00F0
:1013D00084F83CC0A4F84080CDE901E8CDF800C015
:1013E000286802F097F8002385F8903204B0BDE831
:1013F000F0810220FAE710B590F89032012B0446F4
:1014000009D0012380F89032006801F058FD0020D7
:1014100084F8900210BD0220FCE72DE9F0438046DD
:101420008BB0B0B30323444680F891320CF0C2FB7A
:1014300054F8100B01F036FF0FCC6D460FC50FCCE2
:101440000FC594E8030085E8030008F10409464647
:1014500099E80E00D8F8000001F0E4FE56F8100BF1
:10146000012101F025FF0FCE6F460FC70FCE0FC72A
:1014700094E8030085E8030099E80E00D8F800001E
:1014800001F0CCFF012388F8913200200BB0BDE8B9
:10149000F0830120FAE72DE9F0419DF818C0079E7E
:1014A000BDF820509DF82470282404FB010EBCF1E7
:1014B000000F14BF4FF002084FF003088EF83B20D6
:1014C0008EF83F308EF84280032B1ED8DFE803F001
:1014D00002533042BCF1010F17D1B2B925B928230C
:1014E00003FB010383F851C0282303FB010393F896
:1014F0005120003A18BF0122520083F8422093F88D
:101500005C20022A01D083F83D70282202FB0103EF
:10151000002483F83910A3F85C401946C3E911652B
:10152000027CDC640068BDE8F041383101F082BB28
:1015300004FB0104BAB994F85130003B18BF0123F1
:101540005B0084F8423094F85C30022BDDD084F8E4
:101550003D70DAE704FB01042AB994F8513043B92D
:1015600084F84220D1E794F8503013B984F842301F
:10157000CBE70223FAE704FB01040023F6E70000AF
:101580002DE9F04F076885B00546384601F0EEFEBC
:10159000012840F0E980286801F0E4FE002800F00E
:1015A000E380286801F0DEFE810248BF2B682868CE
:1015B00044BF4FF400125A6101F0D4FEC20248BF8A
:1015C0002B68286844BF4FF480125A6101F0CAFEAC
:1015D000430148BF2B68286844BF4FF080625A61BE
:1015E00001F0C0FE860748BF2B68286844BF02226E
:1015F0005A6101F0B7FE840010D5D7F8403423F0CB
:101600002E03C7F8403428460CF018FB2868012147
:1016100001F0B0FE2B684FF000525A61286801F0CB
:10162000A1FEC00140D52C68D4F840340293D4F810
:1016300040340393039B23F02E030393029B9907EB
:101640000DD5029BDA0706D5A36923F00053A361E9
:1016500028460CF0EFFA039B43F002030393029B2E
:101660001B0717D5039B43F008030393029B5E07F8
:1016700040F18580A969022979D1029B286803F489
:10168000C023B3F5802F18BF012101F073FE284657
:101690000CF0D0FA029B980642BF039B43F0200354
:1016A0000393039BC4F84034286801F05BFE0107F4
:1016B00005D528460CF0BAFA2B6808225A6128682A
:1016C00001F050FE820110D5286801F0E9FB07F512
:1016D000A06700904FF000084FF0010AAB6828683F
:1016E000434558D84FF000734361286801F03AFE33
:1016F000C30639D52C68A36923F01003A361276AB8
:1017000007F4F013B3F5802F29D1C7F30A18B8F105
:10171000000F24D007F00F07282606FB0756716C30
:10172000E9B14246204601F00FFE736C43447364F6
:1017300004F5A064F36C04EB471443442269F3649A
:10174000AC4B13405BB1236823F0804343F000436C
:10175000236096F8503083F0010386F850302A68F1
:10176000936943F01003936105B0BDE8F08FEB6817
:10177000032B04BF4EF66022C4F8042487E7D4F894
:1017800040342A6823F02E03C4F84034936943F0B0
:10179000005393617EE7009A0AFA08F3134200F0BF
:1017A000858039685FFA88F600F5A06B0B044FEA74
:1017B00046190BEB461440F11281A168490713D575
:1017C0000423A360E16841F00201E160A1688A0599
:1017D0003BD5E368286843F00203E360314601F03B
:1017E0006EFB4FF4007337E1A1688A0602D5202111
:1017F000A160EBE7A1680B0712D5E16841F0020197
:10180000E160282101FB06514FF0050C81F85DC015
:101810001021A1600821A160314601F050FBD5E7FD
:10182000A1684905D2D5E16841F00201E160314685
:1018300001F045FB1021A160282101FB0651082081
:1018400081F85D004FF48061D2E7A06810F00100DC
:1018500040D0296949B12820216900FB0650C1F315
:10186000120C816CA1EB0C01C164282101FB065113
:101870000122002381F85D208B65A26091F83FC0B2
:101880001CF0FD0F16D1E368286843F00203E36003
:10189000314601F014FB1023A360282303FB0653F9
:1018A00093F8502082F0010283F8502008F10108DB
:1018B000203713E7BCF1030FEFD15BF8094044F088
:1018C00000544BF80940284681F85C2031460CF062
:1018D000B9F9E2E7A1688B0743D5E16821F002017D
:1018E000E160282101FB065C9CF85DC00CF1FF3C27
:1018F000BCF1070F0AD8DFE80CF004090909151933
:10190000091901FB0651012381F85C300223A36011
:10191000282303FB0653314693F85C2028460CF03D
:1019200091F9C3E701FB06510523EDE701FB0651E1
:10193000896D032998BF481C4FF0280101FB06510F
:1019400094BF4FF0020C4FF0040C81F85CC0886526
:101950005BF8091021F0804141F000414BF809107B
:10196000D4E7A1682868090611D5E368282202FB9C
:10197000065243F00203E360936D0133936506233F
:1019800082F85D30314601F09AFA802364E0A16864
:10199000CA068BD5282101FB065191F83F10032977
:1019A00006D1E16841F00201E160314601F087FAB9
:1019B000282101FB0651032081F85D001020A06062
:1019C00091F83F1011F0FD0F7FF470AF5BF8091034
:1019D00021F0804141F000414BF8091066E7A3680F
:1019E0005B0709D50423A360E36843F00203E360C7
:1019F0005CE700BF0000F81FA26812F0200219D0B7
:101A00002023A360282303FB065393F83D20012ADB
:101A10007FF44CAF042283F85D20E268019342F02A
:101A20000202E260314601F04AFA019B022283F889
:101A30005C203BE7A368590610D5282303FB065317
:101A4000042183F85D109A65E36843F00203E360C4
:101A5000314601F034FA4023A36027E7A26812F46C
:101A6000007205D0E36843F00203E3603146B6E656
:101A7000A368DB0711D5282303FB065331469A657B
:101A8000E268019342F00202E26001F018FA019B61
:101A9000C4F808A083F85DA008E7A36819070FD56C
:101AA0000823A360E36843F00203E360314601F0DA
:101AB00006FA282303FB0653052283F85D20F5E68A
:101AC000A368DA0612D5282303FB065300229A6581
:101AD000E268019342F00202E260314601F0EFF960
:101AE000019B032283F85D201023B5E7A3681B0642
:101AF0000DD5E36843F00203E360314601F0DFF9FE
:101B0000282303FB0653062283F85D203DE7A368E4
:101B1000590510D5E36843F00203E360314601F054
:101B2000CEF91023A3604FF48063A360282303FB46
:101B300006530822C1E7A3689A077FF5B7AEE368AA
:101B400023F00203E360282303FB065292F85D2092
:101B5000013A072A3FF6DAAE01A151F822F000BFA0
:101B6000811B00080D190008A31B0008AB1B00080F
:101B7000BD1B0008C91B00080D190008C91B00087F
:101B800003FB0653012283F85C2093F83F20022ACE
:101B90007FF4BCAE93F8512082F0010283F851200B
:101BA000B4E603FB065302220BE003FB06530222BA
:101BB00083F85C20002283F83D20A7E603FB065350
:101BC000052283F85C20A1E603FB06539A6D511CA5
:101BD000032A9965E7D900229A650422F1E700BF3C
:101BE00038B590F89032012B04460DD0012580F8CD
:101BF0009052006801F050FB2068294601F0EFFB8D
:101C0000002084F8900238BD0220FCE710B590F85F
:101C10009032012B044609D0012380F890320068ED
:101C200001F068FA002084F8900210BD0220FCE761
:101C3000006801F0BBBB282303FB010090F85C00A7
:101C40007047282303FB0100C06C7047006801F057
:101C50005CBC006801F050BC2DE9F341044618B9A2
:101C6000012002B0BDE8F0810368DD0710D42368CD
:101C7000980758D423681A0700F19A8023685B07F5
:101C800000F1BA80A269002A40F022810020E8E732
:101C90008C4B9A6802F00C02042A07D09A6802F072
:101CA0000C02082A0AD15B68590207D5854B1B68CC
:101CB0009A03DCD56368002BD9D1D1E76368814DE5
:101CC000B3F5803F11D12B6843F480332B60FEF7CE
:101CD0009BFC7C4E054633689B03C8D4FEF794FCFE
:101CE000401B6428F7D90320BBE7B3F5A02F04D12C
:101CF0002B6843F480232B60E5E72A6822F48032C6
:101D00002A602A6822F480222A60002BDFD1FEF7A5
:101D10007BFC06462B689F03A9D5FEF775FC801B4C
:101D20006428F7D9DFE7674B9A6812F00C0F07D0E9
:101D30009A6802F00C02082A11D15B685E020ED488
:101D4000604A13689D0702D5E368012B88D11368A8
:101D5000216923F0F80343EAC10313608AE7E268CC
:101D6000594BB2B101221A60FEF74EFC554D0646A2
:101D70002B68980707D52B68226923F0F80343EAFC
:101D8000C2032B6076E7FEF73FFC801B0228EFD9E9
:101D9000A9E71A60FEF738FC4A4E054633689907F2
:101DA0007FF568AFFEF730FC401B0228F6D99AE7B2
:101DB0006269454B82B10122C3F8802EFEF724FCF4
:101DC000404E0546736F9F073FF558AFFEF71CFC6A
:101DD000401B0228F6D986E7C3F8802EFEF714FCD4
:101DE000384E0546736F98077FF548AFFEF70CFC39
:101DF000401B0228F6D976E7324B1A6C12F080525B
:101E000028D101921A6C42F080521A641B6C03F0C4
:101E100080530193019B01272C4D2B68D9051BD5BD
:101E2000A368284D012B27D12B6F43F001032B67AB
:101E3000FEF7EAFB234E054641F28838336F9B07D5
:101E400039D5002F3FF41EAF1E4A136C23F0805388
:101E5000136417E70027DFE72B6843F480732B60D8
:101E6000FEF7D2FB06462B68DA05D9D4FEF7CCFB89
:101E7000801B0228F7D936E7052B04D12B6F43F0DE
:101E800004032B67D0E72A6F22F001022A672A6F2A
:101E900022F004022A67002BCAD1FEF7B5FB41F2FB
:101EA000883806462B6F9807CBD5FEF7ADFB801B15
:101EB0004045F7D917E7FEF7A7FB401B4045BDD9C2
:101EC00011E700BF003802400000474200700040A8
:101ED000224DAB6803F00C03082B3FF4C1AE204B3E
:101EE000022A4FF000021A662BD1FEF78DFB064640
:101EF0002B6899011FD4D4E907321343626A43EA7D
:101F00008213E26A43EA0263A26A5208013A43EA90
:101F100002436B60124B114D01221A66FEF774FBEF
:101F200004462B689A013FF5B1AEFEF76DFB001B2E
:101F30000228F6D9D7E6FEF767FB801B0228D7D91F
:101F4000D1E6FEF761FB04462B689B017FF59EAE50
:101F5000FEF75AFB001B0228F6D9C4E600380240FF
:101F600000004742134908B58B6803F00C03042BAB
:101F70001CD0082B1CD14A684B68496813F48003B5
:101F800014BF0D480D48C1F3881118BF002302F09B
:101F90003F02A1FB0001FEF77BF9064B5B68C3F330
:101FA000014301335B00B0FBF3F008BD0248FCE7DE
:101FB0000248FAE70038024000127A000024F400D8
:101FC0002DE9F0410D46044610B90120BDE8F0812D
:101FD000434B1A6802F00F028A4227D321688F0709
:101FE0002CD4C8073FD43E4B1A6802F00F02AA4215
:101FF00064D8226851076AD4130707D5394A216982
:10200000936823F4604343EAC1039360FFF7AAFF98
:10201000344B354A9B68C3F30313D35CD840334B2E
:10202000186000200BF0EEFB0020CFE7CAB21A7058
:102030001B6803F00F038B42C7D1CFE7294B11F088
:10204000040F1EBF9A6842F4E0529A600E0742BF26
:102050009A6842F460429A609A68A06822F0F0029E
:1020600002439A60BDE762681E4B012A1CD11B68BF
:1020700013F4003FA9D01B4EB36823F003031343AE
:10208000B360FEF7C1FA41F288380746B368626868
:1020900003F00C03B3EB820FA5D0FEF7B5FAC01B1B
:1020A0004045F3D9032091E7911E01291B6802D80E
:1020B00013F0007FDEE713F0020FDBE7EAB21A70DD
:1020C0001B6803F00F03AB427FF47FAF91E7054934
:1020D000E0688B6823F4E05303438B608CE700BF18
:1020E000003C024000380240BC11010830000020D2
:1020F000014B1868704700BF30000020044B054AB0
:102100009B68C3F38223D35C034A1068D8407047AE
:1021100000380240B411010830000020044B054A89
:102120009B68C3F34233D35C034A1068D8407047BE
:1021300000380240B4110108300000200F23036072
:102140000B4B9A6802F0030242609A6802F0F002B8
:1021500082609A6802F4E052C2609B68DB0803F474
:10216000E0530361034B1B6803F00F030B607047E0
:1021700000380240003C0240036A23F0010370B5BE
:102180000362036A446882690D6822F073022A437D
:102190008D6823F002032B430C4DA84203D005F5B4
:1021A0008065A8420BD1CD6823F008032B43D1E909
:1021B000055624F44074354323F004032C43446053
:1021C00082614A684263036270BD00BF0000014043
:1021D000036A23F4807370B50362036A4468C269BA
:1021E0000D6822F073022A438D6823F4007343EADA
:1021F00005230D4DA84203D005F58065A8420DD1F9
:10220000CD6823F4006343EA0523D1E9055624F49D
:102210004054354323F4806344EA05144460C261AA
:102220004A68C263036270BD00000140036A23F480
:10223000805330B50362036A4468C2690D6822F4B2
:10224000E64242EA05228D6823F4005343EA05334F
:10225000084DA84203D005F58065A84204D14D6918
:1022600024F4804444EA85144460C2614A680264EC
:10227000036230BD0000014070470368DA6842F035
:102280000102DA601A6842F001021A600020704709
:10229000704770477047704703681A69910710B517
:1022A00004460ED5DA6892070BD56FF002021A6168
:1022B000012202769B699B0777D0FFF7EAFF002394
:1022C000237623681A69500710D5DA6851070DD5AF
:1022D0006FF004021A61022222769B6913F4407F98
:1022E000204668D0FFF7D5FF0023237623681A69BC
:1022F00012070FD5DA6810070CD56FF008021A61C3
:1023000004222276DB69990720465AD0FFF7C1FFE5
:102310000023237623681A69D20610D5DA68D0061E
:102320000DD56FF010021A6108222276DB6913F4D2
:10233000407F20464BD0FFF7ACFF00232376236875
:102340001A69D10708D5DA68D20705D56FF00102FE
:102350001A6120460BF060F923681A69100608D547
:10236000DA68110605D56FF080021A61204600F088
:102370008AF923681A69520608D5DA68500605D525
:102380006FF040021A612046FFF785FF23681A6943
:10239000910622D5DA6892061FD56FF020022046FA
:1023A0001A61BDE8104000F06DB9FFF771FF2046DB
:1023B000FFF770FF83E7FFF76BFF2046FFF76AFF29
:1023C00092E7FFF765FF2046FFF764FFA0E7FFF7FE
:1023D0005FFF2046FFF75EFFAFE710BD234A0368AB
:1023E000904212D0B0F1804F0FD0A2F57C429042C3
:1023F0000BD002F58062904207D002F580629042D5
:1024000003D002F57842904208D14A6823F0700365
:102410001343CA6823F44073134316E0144A9042EE
:10242000F7D002F580629042F3D002F580629042CC
:10243000EFD0A2F598329042EBD002F58062904244
:10244000E7D002F580629042E3D003608B68C362FC
:102450000B688362054B984203D003F58063984272
:1024600001D10B6903630123436170470000014000
:102470000040014010B50446A0B190F8393003F097
:10248000FF021BB980F83820FFF7F6FE0223206810
:1024900084F83930211DFFF7A1FF012384F839307A
:1024A000002010BD0120FCE710B50446A0B190F853
:1024B000393003F0FF021BB980F838200BF002F925
:1024C0000223206884F83930211DFFF787FF01239C
:1024D00084F83930002010BD0120FCE7036A23F0A6
:1024E000100370B50362036A446882690D6822F4C0
:1024F000E64242EA05228D6823F0200343EA0513F1
:102500000D4DA84203D005F58065A8420DD1CD68D8
:1025100023F0800343EA0513D1E9055624F440640F
:10252000354323F0400344EA8504446082614A68ED
:102530008263036270BD00BF0000014038B590F8AF
:102540003830012B04464FF0020010D00123082A36
:1025500084F8383084F839003CD009D8D2B1042A44
:1025600028D00123002084F8393084F8380038BDA1
:102570000C2AF6D12068FFF759FEC3690A6943F4B3
:102580000063C361C36923F48063C361C36943EA21
:1025900002232DE02068FFF7EFFD83690A6943F00D
:1025A00008038361836923F0040383618369134310
:1025B0008361D6E72068FFF791FF83690A6943F4D6
:1025C00000638361836923F480638361836943EAE1
:1025D0000223EDE72068FFF7FBFDC3690A6943F0BA
:1025E0000803C361C36923F00403C361C3691343D0
:1025F000C361B6E7036A10B501248C4023EA0403E3
:102600000362036A8A401A43026210BD08B500687B
:102610000122FFF7EFFF084B984203D003F58063D8
:10262000984203D1436C43F400434364036843F08E
:1026300001030360002008BD00000140FFF7E6BF72
:1026400010B590F83830012B02464FF0020018D038
:10265000136882F8390058680C68496820F07000E7
:102660005860586820435860986820F0800098604F
:102670009868014399600020012382F8393082F87C
:10268000380010BD704770470368DA6822F4907212
:10269000DA605A6922F001025A61202380F83A3048
:1026A000704700002DE9F8430368C1681A690446C1
:1026B00022F440520A431A612569A268D968C069A8
:1026C0002A43656921F416412A4321F00C01024393
:1026D0000A43DA605A69A16922F440720A43B0F5EC
:1026E000004F5A61834A40F08580934203D002F53F
:1026F0008062934249D1FFF711FD63684FF01909D9
:102700005B0009FB00F7B7FBF3F7FFF707FD636812
:1027100009FB00F55B00B5FBF3F5FFF7FFFC636811
:102720004FF064085B0009FB00F0B0FBF3F0B0FB76
:10273000F8F008FB1056FFF7F1FCB7FBF8F76368F9
:10274000F6003236B6FBF8F6760009FB00F55B00C2
:102750003F0106F4F876B5FBF3F5FFF7DFFC63689D
:1027600022685B0009FB00F0B0FBF3F0B0FBF8F06F
:1027700008FB1053DB003233B3FBF8F303F007031D
:102780003B4433449360BDE8F883FFF7B7FC6368CC
:102790004FF0190909FB00F75B00B7FBF3F7FFF7F0
:1027A000ADFC636809FB00F55B00B5FBF3F5FFF7D3
:1027B000A5FC63684FF064085B0009FB00F0B0FB08
:1027C000F3F0B0FBF8F008FB1056FFF797FCB7FBEF
:1027D000F8F76368F6003236B6FBF8F6760009FBC8
:1027E00000F55B003F0106F4F876B5FBF3F5FFF763
:1027F00085FCB4E7934202D03F4A934246D1FFF7AB
:102800008DFC63684FF019099B0009FB00F7B7FBCB
:10281000F3F7FFF783FC636809FB00F59B00B5FB4A
:10282000F3F5FFF77BFC63684FF064089B0009FB3E
:1028300000F0B0FBF3F0B0FBF8F008FB1056FFF728
:102840006DFCB7FBF8F763683601323609FB00F51B
:102850009B00B6FBF8F63F0106F0F006B5FBF3F57A
:10286000FFF75CFC636822689B0009FB00F0B0FB8B
:10287000F3F0B0FBF8F008FB10531B013233B3FB4D
:10288000F8F303F00F0333433B447BE7FFF736FCD9
:1028900063684FF0190909FB00F79B00B7FBF3F7DA
:1028A000FFF72CFC636809FB00F59B00B5FBF3F513
:1028B000FFF724FC63684FF064089B0009FB00F0FD
:1028C000B0FBF3F0B0FBF8F008FB1056FFF716FC76
:1028D000B7FBF8F76368360109FB00F59B003F0181
:1028E0003236B5FBF3F5B6FBF8F606F0F006FFF767
:1028F00005FCB7E7001001400014014010B5044684
:1029000040B390F8393003F0FF021BB980F838204B
:102910000AF006FF2268242384F83930D36823F4B0
:102920000053D3602046FFF7BDFE23681A6922F4E6
:1029300090421A615A6922F02A025A61DA6842F416
:102940000052DA6000202023E06384F8393084F8F4
:102950003A3010BD0120FCE773B5134690F83A20D9
:10296000202A044638D1002934D0002B32D090F8E8
:102970003820012A30D00122002580F83820222278
:10298000C563816280F83A208385406B134AC26335
:10299000134A26680264134AC0E913250A46311D0A
:1029A000FDF750FF236801951A6801925A68019259
:1029B00084F83850019ADA6842F48072DA605A6911
:1029C00042F001025A615A6942F040025A612846B7
:1029D00002B070BD0120FBE70220F9E7ED290008F5
:1029E0008F2A00089B2A00087047704708B50346E5
:1029F000806B1B681B6813F4807310D1C385036858
:102A0000DA6822F48072DA605A6922F001025A61AF
:102A10005A6922F040025A61202380F83A30FFF7C9
:102A2000E4FF08BD90F83A30222B10B520D1816820
:102A300004690268836AB1F5805F1ED15268C4B927
:102A4000C2F3080223F8022B8362C38D013B9BB2C1
:102A5000C3856BB90368DA6822F49072DA605A6948
:102A600022F001025A61202380F83A30FFF7BDFFBF
:102A700010BDD2B223F8012BE6E7591C52688162DF
:102A80000CB91A70E1E702F07F02FAE7704708B567
:102A9000806BFFF7FBFF08BD704708B5806B0368CC
:102AA0005A6990F8391021290AD1120608D5002256
:102AB000C284DA6822F0C002DA60202280F839206D
:102AC0005B6990F83A20222A05D15B0603D50023E2
:102AD000C385FFF7D9FDC36B43F01003C363FFF752
:102AE000DBFF08BD03681A68D96870B516075D6911
:102AF000044607D1960659D58D0657D5BDE87040D6
:102B0000FFF790BF05F0010001F4907505434DD02B
:102B1000D60705D5CD0542BFE36B43F00103E36360
:102B2000530704D518B1E36B43F00203E363960740
:102B300004D518B1E36B43F00403E363150704D530
:102B400018B1E36B43F00803E363E36B4BB3900608
:102B500004D58A0602D52046FFF764FF21684B6939
:102B6000E26B03F0400302F0080253EA020520463C
:102B700018D0FFF789FD4B695B060FD54B69606B79
:102B800023F040034B6148B1254B0365FDF797FEE9
:102B900038B1606BBDE87040036D18472046FFF701
:102BA0007BFF70BDFFF778FFE563FAE7160628D5CF
:102BB0000D0626D594F83920212AF2D1A168226A7F
:102BC000B1F5805F18D11188C1F3080159602169FE
:102BD00081B902322262E28C013A92B2E284002A86
:102BE000DFD1DA6822F08002DA60DA6842F040026F
:102BF000DA60D6E70132EDE7511C216212785A60A3
:102C0000E9E75006CDD54A06CBD5DA6822F0400276
:102C1000DA60202384F839302046FFF7E5FEC0E76C
:102C2000252C000808B5806B0023C385C384FFF7FB
:102C300033FF08BD80B58AB002AFF860B9601346B3
:102C4000FB7100237B7700237B830023FB834FF4FE
:102C500080733B8300237B61FB68B3F1A04F2AD0D4
:102C6000BB681B79002B26D1FB79002B0BD1BB68ED
:102C70005B79012B07D1BB685B781946F86800F0D7
:102C8000FFF9002306E1FB79012B14D1BB685B78C7
:102C90005A01FB68134403F5A063DB68BA685278F5
:102CA0005101FA680A4402F5A06223F06003D36080
:102CB000BB6800225A71BB681B69002B19D0BB6826
:102CC0001B69BA6812891344013BBA681289B3FBC5
:102CD000F2F3FB83FA8B3B8B9A420CD93B8BFB8341
:102CE000FB8BBA68128902FB03F31A46BB681A61B0
:102CF00001E00123FB83BB68DB78002B07D0FB8B53
:102D0000BA68128902FB03F31A46BB681A61BB68F2
:102D10001B69C3F31202FB8BD904604B0B401A43AF
:102D2000BB689B7A5B0703F0C043B96849784801E8
:102D3000F968014401F5A06113430B61FB79002B95
:102D40000AD0BB68D968BB685B785A01FB6813443A
:102D500003F5A0630A465A61FB6803F580639B682C
:102D600003F00103002B0CBF01230023DBB27B77B0
:102D7000BB685B785A01FB68134403F5A0631B68CA
:102D8000BA6852785101FA680A4402F5A06223F049
:102D900000531360BB685B785A01FB68134403F56A
:102DA000A0631A687B7F5B07B96849784801F968B6
:102DB000014401F5A06113430B60BB685B785A01C5
:102DC000FB68134403F5A0631B687B617B6923F0F8
:102DD00080437B617B6943F000437B61BB685B7828
:102DE0005A01FB68134403F5A0631A467B6913601C
:102DF000FB79002B4DD1BB68DB78002B49D1BB6838
:102E00001B69002B45D0BB68DB79032B30D801A2AE
:102E100052F823F0252E0008492E0008252E000820
:102E2000492E0008BB681B6903339B087B837A8BA0
:102E3000FB68DB6A9BB29A421CD9FB689B6943F032
:102E40002002FB689A6115E0BB681B6903339B088D
:102E50007B837A8BFB6803F580631B699BB29A4284
:102E60000AD9FB689B6943F08062FB689A6103E0C2
:102E700000BF02E000BF00E000BFBB68D968BB68CC
:102E80005A78BB681B699BB200200090F86800F07C
:102E900047FA002318462037BD4680BD0000F81FC2
:102EA00080B483B000AF78607B6803F580635B69B2
:102EB0009BB218460C37BD465DF8047B704780B462
:102EC00085B000AF78600B46FB700023FB60FB7899
:102ED0005A017B68134403F5A0631B6803F4402385
:102EE000002B0BD0FB785A017B68134403F5A063D9
:102EF0001B6803F44023B3F5002F5CD1FB785A0123
:102F00007B68134403F5A0631B68FA7851017A6863
:102F10000A4402F5A06243F0804313607B68DB6AD9
:102F200003F47F03002B33D1FB785A017B681344F1
:102F300003F5A0631B68FA7851017A680A4402F528
:102F4000A06223F000431360FB785A017B681344AE
:102F500003F5A0631B68FA7851017A680A4402F508
:102F6000A06243F000431360FB680133FB60FB6821
:102F7000B3F57A7F1DD8FB785A017B68134403F5BB
:102F8000A0631B6803F00043B3F1004FECD06FE087
:102F9000FB785A017B68134403F5A0631B68FA7839
:102FA00051017A680A4402F5A06243F000431360BD
:102FB0005EE000BF5CE0FB785A017B68134403F5D8
:102FC000A0631B68FA7851017A680A4402F5A0628E
:102FD00043F0804313607B6803F580631B699BB2F9
:102FE000002B33D1FB785A017B68134403F5A063AF
:102FF0001B68FA7851017A680A4402F5A06223F04E
:1030000000431360FB785A017B68134403F5A06307
:103010001B68FA7851017A680A4402F5A06243F00D
:1030200000431360FB680133FB60FB68B3F57A7FF4
:103030001DD8FB785A017B68134403F5A0631B6815
:1030400003F00043B3F1004FECD011E0FB785A01DC
:103050007B68134403F5A0631B68FA7851017A6812
:103060000A4402F5A06243F00043136000E000BF91
:10307000002318461437BD465DF8047B70470000F6
:1030800080B485B000AF78600B46FB700123FB7302
:103090000023BB60FB7BDA04154B1340FA78510127
:1030A0007A680A4402F5A06243F000431361FB789A
:1030B0005A017B68134403F5A0631B68BB60BB68BF
:1030C00023F08043BB60BB6843F00043BB60FB78E8
:1030D0005A017B68134403F5A0631A46BB6813606A
:1030E000002318461437BD465DF8047B704700BFC7
:1030F0000000F81F80B586B000AF786000233B6108
:10310000786800F0CFF81021786800F0E7F8786868
:1031100000F0F6F80023FB751FE0FB7D5A017B6889
:10312000134403F5A0631B68FB60FB6843F0804316
:10313000FB60FB6823F00043FB60FB6823F4004363
:10314000FB60FB7D5A017B68134403F5A0631A46BC
:10315000FB681360FB7D0133FB75FB7D0F2BDCD916
:103160000023FB7534E0FB7D5A017B68134403F5B3
:10317000A0631B68FB60FB6843F08043FB60FB6857
:1031800043F00043FB60FB6823F40043FB60FB7DDE
:103190005A017B68134403F5A0631A46FB68136069
:1031A0003B6901333B613B69B3F57A7F0CD8FB7D0A
:1031B0005A017B68134403F5A0631B6803F00043C6
:1031C000B3F1004FECD000E000BFFB7D0133FB7595
:1031D000FB7D0F2BC7D97B6803F580631A464FF040
:1031E000FF3353617B684FF0FF325A61786800F01B
:1031F00053F8002318461837BD4680BD084B013BE5
:103200000CD00269002AFADA036943F00103036172
:10321000034B013B02D00269D207FAD4704700BFCA
:10322000410D030084B038B505AD85E80E000A9B5A
:10323000012B044626D1836B23F480338363C36858
:1032400023F4840323F04003C360C36823F44013D2
:10325000C360119B012B02BFC36843F48013C3609A
:10326000FFF7CCFF089B012B07D1A36843F00603AF
:10327000A360A36843F02003A360BDE838400020AA
:1032800004B07047C36843F04003C360FFF7B6FF64
:103290004FF480338363E5E7836843F00103836081
:1032A00000207047836823F001038360002070478B
:1032B00008B5C368012923F0C043C36008D1C368BF
:1032C00043F00053C3603220FDF7A4F9002008BD8D
:1032D0000029F8D1C36843F08043F3E7890141F046
:1032E0002001016105490246013904D0106910F03E
:1032F0002000F9D170470320704700BF410D030043
:103300001023064903610246013904D0106910F008
:103310001000F9D170470320704700BF410D030032
:1033200010B59DF808404CB9033300F580509B0858
:1033300000EB023201EB8303994201D1002010BD62
:1033400051F8040B1060F7E70332920801EB820298
:1033500000F58050914201D108467047036841F85A
:10336000043BF7E74269806910407047406900F00C
:1033700001007047D0F8003423F0030310B5C0F803
:103380000034D0F8004401F003032343012900F581
:103390008062C0F8003404D14BF6803353600020C3
:1033A00010BD0229FBD141F27073F7E713B5D0F8D5
:1033B00040340193019B23F02E030193019B43F4BE
:1033C00080730446C0F840340A20FDF723F9019BBE
:1033D000002023F48073C4F8403402B010BD82B0E2
:1033E000D0F840340193019B23F02E030193019BFD
:1033F000DA0406D4012902BF019B43F48053C0F8CC
:103400004034019BDB0405D521B9019B23F4805393
:10341000C0F84034002002B07047000084B038B5D6
:10342000044605A880E80E000023C4F8003EA36B04
:1034300023F48023A363A36B23F40023A363A36B70
:1034400043F40013A363079B032BD4F800343CD14F
:10345000B4F1A04F39D043F00403C4F80034102174
:103460002046FFF73BFF2046FFF74AFF002306995F
:1034700004F5A0624FF0FF301D46994228D101218A
:103480002046FFF7ACFFC820FDF7C4F80023A36176
:10349000B4F1A04F4FF0FF3363611ED1802363620C
:1034A00003F5C003A362114BC4F80031089B1BB99C
:1034B000A36943F01003A361A2690D4B1343A361F9
:1034C000BDE83840002004B0704723F00403C4E78F
:1034D00090600133D5602032CFE74FF40073636210
:1034E00003F18073A362034BDEE700BFE0004000FE
:1034F000080020A30003E00082B0D0F8403401931C
:103500000198C0F3414002B0704700F580608068C8
:1035100080B270472DE970418C4600F5A06404EB41
:103520004C149DF8185019464FF0FF33A36056B263
:10353000032D19D8DFE805F0024B021340F29D433A
:10354000002EE36003DAE36843F4807305E0B0F132
:10355000A04F09D0E36843F06003E36004E040F269
:103560009D63002EE360EEDBD0F81884012303FA9C
:103570000CF343EA0803C0F81834836943F000737E
:10358000836100F5806E9DF81400831E58425841F7
:10359000BDF81C308905C3F30A0343EA404301F038
:1035A000FE510B43D10201F4F04106F400420B43FB
:1035B0001343AA0402F4402213432360032D02BFE5
:1035C000236843F0005323600020BDE8708140F27F
:1035D0002523002EE360C7DAE36843F4C073BCE739
:1035E0000020704770B5D0F87433DC69227B054643
:1035F0001AB1501E18BF012070BD2368B4F8F8102E
:1036000099424FF0010380F05C81342606FB0142B1
:1036100082F8913092F89030082B4FD8DFE813F001
:1036200009004E005F00B2001B00F1004E004E008A
:103630004D01AB480AF068FE0A200AF077FEB4F8A4
:10364000F830342202FB0343042283F89020D5F89B
:10365000B833C4F8FC30B4F8F810342606FB014245
:103660009F32C9B2284600F0D9FC78BBB4F8F810F4
:103670009C4806FB0141A2310AF046FE0A200AF0EE
:1036800055FEB4F8F810984806FB0141AB310AF03A
:103690003BFE0A200AF04AFEB4F8F810934806FBF5
:1036A0000141BC310AF030FE0A200AF03FFEB4F8B6
:1036B000F830022206FB034383F89020D5F8C803B4
:1036C0000022042101F08EFC012095E7022840F041
:1036D000EC80B4F8F830052206FB0343ECE7C9B2EE
:1036E00000F046FCF8B9B4F8F830342202FB03438A
:1036F00093F89220A2B101227D4883F8C1200AF0FC
:1037000003FE0A200AF012FEB4F8F830342202FB5D
:1037100003430322A3F89020002283F89220CDE7F0
:1037200083F8C120F0E7022820D1B4F8F830342221
:1037300002FB034393F89220022A13D001226D4822
:1037400083F8C1200AF0E0FD0A200AF0EFFDB4F88A
:10375000F830342202FB034340F20512A3F8902014
:103760000222DAE7002283F8C120F0E70428A5D17D
:10377000B4F8F830342202FB034340F20122A3F8EC
:1037800090209BE706FB01429432C9B200F013FC83
:1037900000289BD1B4F8F83006FB034393F8C1200E
:1037A000012A22D1B3F89820D3F8941052485143FB
:1037B0000AF0AAFD0A200AF0B9FDB4F8F8304F4823
:1037C00006FB0343D3F894100AF09EFD0A200AF08A
:1037D000ADFDB4F8F8304A4806FB0343B3F898103F
:1037E0000AF092FD0A200AF0A1FDB4F8F830342264
:1037F00002FB03420121A2F890100B44A4F8F83018
:103800005CE706FB01429C32C9B200F062FC002872
:103810003DD1B4F8F83006FB034393F89C1001F057
:10382000FB0002280BD1D4F8FC60D5F8B823921B1A
:1038300042F20F76B24202D883F890003EE7314858
:103840000AF062FD0A200AF071FDB4F8F8302E4843
:10385000342606FB034393F89D100AF055FD0A2019
:103860000AF064FDB4F8F830284806FB034393F8E7
:103870009E100AF049FD0A200AF058FDB4F8F8300D
:1038800006FB0346012286F890201344B6E702287F
:103890000BD118480AF038FD0A200AF047FDB4F8A9
:1038A000F830082206FB034306E704287FF406AF3E
:1038B000B4F8F83006FB03435FE70131A4F8F810D1
:1038C000FCE62373A4F8F8200421D0F8C80301F023
:1038D00089FBD5F8C433022128469847F4E600BF97
:1038E00044F100084EF1000863F1000878F1000887
:1038F0008DF100089EF10008B3F10008D3F1000833
:10390000E6F10008F9F1000809F2000824F20008C5
:1039100070B5D0F87423D469A27B022A034604D080
:10392000032A29D00AB1012070BD2146184600F0B3
:1039300004FA032816D100232360217812480131AC
:1039400021600AF0E1FC0A200AF0F0FC0022216864
:10395000342002251646D3B2994202F1010204D85E
:103960000020E1E70028DFD1E7E700FB034383F80D
:10397000925083F8C160EEE7002101F0BAF9002807
:10398000D1D1E37BA373CEE748F2000838B5D0F875
:103990007433DD696979044639B101F024FA697933
:1039A000204601F03CFA00236B71297941B1204691
:1039B00001F019FA2979204601F031FA00232B7120
:1039C000D4F87433D86928B10AF0E8FAD4F874331B
:1039D0000022DA61002038BDF0B5D0F8741385B04C
:1039E000097950230622054600F0EEFCFF28014627
:1039F0000ED13D480AF088FCD5F874333B4819686D
:103A00000AF082FC0A200AF091FC022005B0F0BD09
:103A1000284600F095FC4FF48070D5F874630AF0E6
:103A2000B5FAF06195F81F331A2101FB03520446E1
:103A300092F9486392F84803B2F84A2301FB035312
:103A4000002E93F85013B4BF62812281B3F8522341
:103A500093F95033ACBFA071E071002BA8BFA171E6
:103A60004FF00006BABFE17162812281A179C4F8EA
:103A7000F860A681A673284601F0BAF9E179607171
:103A8000284601F0B5F92071284600F05FF9682258
:103A9000314604F190000AF097FD02272389029332
:103AA000019795F81D33009395F81C33A27961793D
:103AB000284601F089F96389CDE9017395F81D3332
:103AC000009395F81C33E2792179284601F07CF9BE
:103AD0002179324628460AF05DF961793246284656
:103AE0000AF058F9304691E765F200086EF20008D6
:103AF000F7B5D0F87423D269342707FB01250646B1
:103B000095F89040062C07D0072C16D0052C27D00E
:103B10000124204603B0F0BD002300931A4600F0B4
:103B200052FB044678B9012385F89030D6F8C803D3
:103B30000022042101F056FAEBE7002300931A4615
:103B400000F004FBEDE7022804D1052385F890304E
:103B50000124EBE70428FBD1082385F8903021E00D
:103B600007FB01229C3200F0B4FAE8B995F89C10EA
:103B700013480AF0C9FB0A200AF0D8FB95F89D10FB
:103B800010480AF0C1FB0A200AF0D0FB95F89E10FD
:103B90000D480AF0B9FB0A200AF0C8FB40F20123E5
:103BA000A5F890300224C1E7022806D107480AF0A0
:103BB000ABFB0A200AF0BAFBCAE70428CBE700BF38
:103BC000F9F1000809F2000824F200089EF100084B
:103BD00003780A2B01BFD0F87433DB69342202FB6F
:103BE000013103BF91F89100B0FA80F04009002044
:103BF000704710B503780A2B11D1D0F87403342321
:103C0000902413FB0143C169194401F1340351F8B5
:103C1000040B42F8040B9942F9D1002010BD022098
:103C2000FCE72DE9F34190F81E53089F04460E4629
:103C300085B305780A2D2DD1D0F87453ED694FF076
:103C4000340C0CFB015C9CF890E0BEF1010F21D11B
:103C50004FF0060E85F80CE08CF890E0A5F8FA100D
:103C6000009700F0B0FA42F21073D4F8B8835F43C3
:103C700031462046FFF73CFF012803D001232B7378
:103C8000002008E0D4F8B833A3EB0803BB4205D901
:103C900001232B73022002B0BDE8F08194F81E339B
:103CA000002BE5D1F4E72DE9F34190F81E53089F6E
:103CB00004460E4685B305780A2D2DD1D0F87453ED
:103CC000ED694FF0340C0CFB015C9CF890E0BEF108
:103CD000010F21D14FF0070E85F80CE08CF890E031
:103CE000A5F8FA10009700F031FA42F21073D4F8F8
:103CF000B8835F4331462046FFF7FAFE012803D020
:103D000001232B73002008E0D4F8B833A3EB080399
:103D1000BB4205D901232B73022002B0BDE8F0811C
:103D200094F81E33002BE5D1F4E74FF62171002201
:103D3000C0E90412114600F0C3BD4FF480324FF6C3
:103D4000A16CC0E904C2012200F0BABDD0F87433FE
:103D50000549DB69054AC3E91512012283F85020A1
:103D600083F8522000207047555342435040302082
:103D700073B5D0F87433DC6994F85030013B0546D4
:103D80000A2B19D8DFE813F00B001C003D00470098
:103D900063006D008E009600C400CF00E80002238F
:103DA000012284F8611084F8503004F154016379E1
:103DB00000921F2200F0E1FF0126304602B070BDE4
:103DC000617909F0D6FF012801460BD1E36D002B84
:103DD00060D094F96030002BB4BF0323052384F82E
:103DE000503053E0022808D1012384F850300022DB
:103DF000D5F8C80301F0F6F8DEE70528DCD10A2380
:103E0000EDE723796289D4F88C1000F0CDFF04230C
:103E100084F85030D0E7217909F0ABFF012872D146
:103E2000E36D628993420BD9D4F88C109B1A11442C
:103E3000E365C4F88C102379284600F0B5FFBBE792
:103E400000220723E26584F850300221D0E70121E7
:103E5000637922890091D4F88C1000F08EFF06233C
:103E6000D6E7617909F085FF012815D1E36D228934
:103E700093420DD9D4F88C109B1A1144E365C4F811
:103E80008C1063790090284600F077FF0022DCE771
:103E90000023E3650723A2E7022801D105239EE75B
:103EA0000528ABE723790D2204F1780100F07CFFAF
:103EB0000823ADE7217909F05CFF012823D184F8BC
:103EC000500084F85200D5F87433DC692846217913
:103ED00009F014FF0D2814D1A26F244B9A4210D17F
:103EE000E26FA36D9A420CD194F88460003E18BF33
:103EF00001267600D5F8C8030022022101F072F8ED
:103F00005BE70226F6E705287FF456AF092366E74C
:103F1000E17900F0EEFE08B9072379E704287FF481
:103F20004BAF0B2374E7A17900F0E3FE064688B996
:103F30006179284609F03DFFC0F101026179D2B2F2
:103F4000284609F027FF21793246284609F022FF4A
:103F500009235DE70428E2E7FFF7E7FE06460028AD
:103F60007FF42BAF012384F8503026E7555342539A
:103F700038B5D0F87433DC6994F85250012D04D070
:103F8000022D14D00225284638BD00210A2384F8CA
:103F90006230E16584F86010102204F163000AF0D9
:103FA00013FB022384F8505084F85230EBE7BDE84D
:103FB0003840FFF7DDBE70B5D0F87433DC6994F893
:103FC0005260012E154603D0022E1AD0012070BD7A
:103FD0000823E365802384F860300F22002104F178
:103FE00064000AF0F1FA42F20A53A4F862300223A4
:103FF00084F8523004F1100384F85060C4F88C3017
:10400000E4E7FFF7B5FE0028E1D1D4F88C2013686F
:104010001BBA2B60D3885BBAAB80D8E770B5164665
:10402000D0F87423D46994F85250012D0B4604D073
:10403000022D1FD00225284670BD80215B0184F827
:10404000601084F86430002102232422C4F8651033
:10405000C4F8691084F8523041F20A2104F11003C7
:10406000E265A4F8621084F8672084F85050C4F820
:104070008C30E0E7FFF77CFE05460028DBD10146E7
:10408000222230460AF0A0FAD4F88C301A7802F0D6
:104090001F0272701A78520932705A78D209B270BF
:1040A0009A68C6F80320DA68C6F80720D4F88C307E
:1040B00006F10C0103F11002203352F8040B41F811
:1040C000040B9A42F9D1D4F88C301B6AC6F81D3023
:1040D000B1E7F8B5D0F87433DC6994F85250012D8B
:1040E0000F46164604D0022D20D002252846F8BDE2
:1040F0000E26802384F86030E6653246002104F104
:1041000065000AF061FA40F20A33A4F86230022333
:104110007F0184F8523004F1100384F8647084F84D
:10412000676084F85050C4F88C30DFE7FFF720FE5A
:1041300005460028DAD1D4F88C309A7802F00F02C4
:1041400032701A7B72705B7BB370CFE72DE9F04160
:104150009846D0F87433069FDC6994F85260012EBB
:10416000154605D0022E2AD002263046BDE8F08141
:104170007B020021E36584F860100F2204F16400E3
:104180000AF022FA42F60A23A4F86230C5F3076364
:1041900084F86530C5F3074384F86630C5F3072318
:1041A00084F867307FBA022384F86850A4F86A70F4
:1041B00084F8506084F85230C4F88C80D5E7BDE8AC
:1041C000F041FFF7D5BD2DE9F0419846D0F87433A2
:1041D000069FDC6994F85260012E154605D0022E28
:1041E0002BD002263046BDE8F0817B02E3658023B8
:1041F00084F860300F22002104F164000AF0E4F931
:1042000042F60A03A4F86230C5F3076384F8653008
:10421000C5F3074384F86630C5F3072384F8673095
:104220007FBA022384F86850A4F86A7084F850605A
:1042300084F85230C4F88C80D4E7BDE8F041FFF731
:1042400097BD10B53C220446002100F55F700AF0CE
:10425000BBF94FF40072002104F58E700AF0B4F936
:10426000002323706370C4F8B83340230122A37184
:104270004FF48073A2702283A4F81C3310BD000099
:1042800070B50D4688B0044658B919480AF03CF894
:1042900018480AF039F80A200AF048F8022008B055
:1042A00070BD0023C0E9DD3380F8BC23FFF7C9FFF0
:1042B0000DB1C4F8C453104D95E8030001AB83E879
:1042C00003000021184600F088FE0835C4F8C80332
:1042D0000FCD03AE0FC62B683360214603A800F054
:1042E000DAFDC4F8CC03204609F0B0FC0020D6E784
:1042F0009AF20008A2F20008F8F0000808B5034698
:1043000099B1D0F8780328B90122C3F87823C3F80B
:10431000701308BD074809F0F7FF074809F0F4FFDC
:104320000A200AF003F80220F3E7024809F0ECFF44
:104330000248F3E79AF20008B6F20008CFF200084C
:1043400038B590F836338B4204460D4624D980F8B0
:104350001F13174809F0D8FF0A2009F0E7FF1A23B6
:1043600003FB0544134894F8411309F0CDFF0A20DC
:1043700009F0DCFF94F842130F4809F0C5FF0A204A
:1043800009F0D4FF94F843130C4809F0BDFF0A204C
:1043900009F0CCFF002038BD094809F0B5FF0948F5
:1043A00009F0B2FF0A2009F0C1FF0220F3E700BFC5
:1043B000E4F2000801F3000810F300081FF30008FE
:1043C0009AF200082EF3000870B50446002594F810
:1043D00041638E42E8B201D0FF290BD194F84263C9
:1043E000964201D0FF2A05D194F843639E4204D03F
:1043F000FF2B02D01A340DB1FF2070BD0125E6E776
:1044000010B5044609F04EFC0121204609F0B5FC28
:10441000002010BD70B586B002238DF817300378E8
:1044200004460A2B1DD8DFE813F00B001C001F0008
:1044300096011C00560079013801420152018E019B
:1044400090F81E336BB101250570C82009F0BFFC40
:10445000204609F048FC00220121D4F8C80300F0EE
:10446000C1FD002006B070BDC24809F04DFF0A2012
:1044700009F05CFF642009F0AAFC204609F028FC42
:104480000523237084F81D030021204600F0B0FCB2
:1044900080216071204600F0ABFC0025A3792071DB
:1044A0000293019594F81D330093014694F81C3350
:1044B0008022204600F088FCA379CDE9015394F8CE
:1044C0001D3300932A4694F81C336179204600F08E
:1044D0007BFC2A46C0E74378072BC2D8DFE803F00D
:1044E00004294158606986A4082100F0EDFA0546C8
:1044F0000028B6D194F82733A37101226270CDE968
:10450000015394F81D33009394F81C3321798022D1
:10451000204600F059FCA379CDE9015394F81D33EE
:10452000009394F81C3361792A46204600F04CFC35
:1045300097E7122100F0C8FA002892D1B4F82A13A4
:104540008D4809F0E1FE0A2009F0F0FEB4F82813C6
:104550008A4809F0D9FE0A2009F0E8FE02236370B8
:104560007FE7012100F0ABFB054600287FF479AF1F
:10457000022009F02CFC012184F81C13804809F06A
:10458000C3FE0A2009F0D2FE03236370A379B6E7C5
:10459000092100F0E1FA00287FF463AF0423DEE78D
:1045A000B0F8341300F0D8FA00287FF45AAF05238E
:1045B000D5E790F82E53ADB100F58E76FF23324645
:1045C000294600F055FB00287FF44BAF6D4831467B
:1045D00009F09AFE0A2009F0A9FE06236370002262
:1045E00005213AE7684809F08FFEF3E790F82F536A
:1045F00095B100F58E76FF233246294600F038FB50
:1046000000287FF42EAF3146604809F07DFE0A2075
:1046100009F08CFE0723A2E75D4809F075FE0A2029
:1046200009F084FE0723D9E790F8305335B300F53D
:104630008E76FF233246294600F01AFB00287FF4CD
:1046400010AF5448314609F05FFE0A2009F06EFEB3
:10465000514809F059FE0A2009F068FE002384F849
:104660001F3394F83133012B15D14C4809F04CFE1F
:104670000A2009F05BFE08232370F2E6484809F09F
:1046800043FE0A2009F052FED4F8C8032A46052149
:1046900000F0A8FCDCE70723EEE7D0F8C433002BDA
:1046A0003FF4DFAE012198470823237097E790F885
:1046B000371300F011FB00287FF4D3AE09232370D9
:1046C000384809F021FE0A2009F030FEC9E6D0F88A
:1046D0007833002B72D1344809F016FE1AE09B683B
:1046E00020469847D4F8743370B9062222701968AE
:1046F0002E4809F009FE0A2009F018FED4F8C43348
:104700000321204698476AE70C222270196828483E
:1047100009F0FAFD0A2009F009FE60E7D0F87453A9
:1047200055B12B6998478DF817009DF81730002B6D
:104730007FF497AE0A239FE70C2303701D4809F00E
:10474000E3FD1D48C8E7D0F87433002B3FF489AE71
:104750005B69984785E6FFF774FDD4F87433002B46
:104760003FF47FAEDB68204698470023C4F87433DB
:1047700077E600BF4CF3000860F3000869F3000817
:1047800072F300088AF300089CF300086BF100083C
:10479000AFF30008BDF30008E4F30008F6F30008E7
:1047A000D0F300081CF4000837F4000855F40008A2
:1047B00067F400089AF20008ACF40008D0F87033EF
:1047C00090F841231979914218BF0023C0F874333F
:1047D000002B84D10C23014823707DE787F4000867
:1047E0001FB50446D4F8C8134FF0FF3201A800F0FB
:1047F00022FC019B102BF5D12046FFF70BFEF1E7C1
:10480000C0F8B8137047D0F8B8230132C0F8B82305
:1048100002780A2A04D1D0F874330BB19B69184787
:10482000704710B5037804467BB9012380F81E3326
:10483000D0F8C4330BB104219847D4F8C803002240
:10484000012100F0CFFB002010BD0378012B04BF35
:1048500002230370F1E7000010B5044609F02DFAB9
:104860002179204600F0DBFA6179204600F0D7FA82
:10487000002384F81E33D4F8C43313B10521204635
:104880009847094809F040FD0A2009F04FFD2046ED
:1048900009F008FA0323D4F8C80323700022012189
:1048A00000F0A0FB002010BDC2F4000808B50022F3
:1048B0000221D0F8C80300F095FB002008BD0000DD
:1048C00037B58578012D044605D0022D0FD001257E
:1048D000284603B030BD0223816082810576837053
:1048E000D4F8C8030022032100F07CFBEFE7037E2D
:1048F000013B0A2BEBD8DFE803F0060E232D3E4ADE
:104900006F79939FAA00427900F1100100F0FEF93F
:1049100002232376DBE7417909F02BFA012840F0E6
:104920009280E28A94F910302AB1002BB4BF03239D
:1049300005232376D4E7002BB4BF09230723F8E728
:10494000D0F8B833C38182890379816800F005FA11
:104950000423DEE7017909F00CFA012801D10923CB
:10496000E7E705286FD1D4F8C8030022032100F03F
:1049700039FB0325ACE701230093437982898168E1
:1049800000F0D4F9D4F8B833E3810623C1E74179C4
:1049900009F0EFF90138042899D801A353F820F061
:1049A000B5490008BF490008CF480008C3490008BE
:1049B000B94900080723BCE70C232376D3E7052376
:1049C000B7E70B23D4F8C80323760022032100F0B5
:1049D00009FB0123A3707BE700220379114600F055
:1049E000BCF9D4F8B833E381082392E7017909F0E0
:1049F000C0F901280CD10D232376D4F8C803002276
:104A0000032100F0EFFA00250123A37025765FE76C
:104A1000042801D10B238CE705287FF458AFA2E7C7
:104A20000123009300224379114600F07FF9D4F866
:104A3000B833E3810A236CE7417909F09AF9012838
:104A4000D9D002288BD004287FF441AFE2E7437E1F
:104A50000133DBB2022B437605D809F02EF901238E
:104A60002376A37033E70621D0F8C4339847002398
:104A70006376054809F048FC044809F045FC0A2023
:104A800009F054FCA5E700BF9AF20008E6F400081C
:104A900030B40D4619468378012B1446BDF8082022
:104AA0000FD1448204F47F440623B4F5407F65F0BF
:104AB0007F05437440F2094318BF002305748382C5
:104AC000C28230BCFFF7FCBE37B500F58E730D46D1
:104AD00000914FF4807200210446FFF7D9FFC8BB54
:104AE00094F81C3184F8203394F81D3184F8213374
:104AF000B4F81E31A4F8223394F8203184F824331A
:104B000094F8213184F8253394F8223184F826333F
:104B1000082D94F8233184F827331BD9B4F82431B5
:104B2000A4F82833B4F82631A4F82A33B4F828318D
:104B3000A4F82C3394F82A3184F82E3394F82B31CE
:104B400084F82F3394F82C3184F8303394F82D31D5
:104B500084F8313303B030BD2DE9F74300F11C0474
:104B60000E46009123464FF4007200210546FFF7E0
:104B70008FFF30BB2B7F85F832336B7F85F8333363
:104B800095F8203085F8363395F8213085F837339D
:104B900095F8223085F8383395F82330B5F81EC0E3
:104BA00085F83933092E95F82430A5F834C385F8F3
:104BB0003A3306D92B4607460922022F01D09445E5
:104BC00002D803B0BDE8F08321780C440A44617830
:104BD000042992B2F3D1217883F83C13617883F8E9
:104BE0003D13A17883F83E13E17883F83F1394F8DE
:104BF000048083F84083617983F84113A17983F8B5
:104C00004213E17983F84313217A83F844134FF078
:104C10001A0E00210EFB07FE414501DA944502D829
:104C200001371A33C9E72678344432446678052EB2
:104C300092B2F1D14E1C0EEBC601294494F80090BB
:104C400081F83E9394F8019081F83F9394F8029094
:104C500081F8409394F8039081F84193B4F804905C
:104C6000A1F8429394F8069081F8449371B2D3E787
:104C7000F7B500F58E7615461F46009341F4407255
:104C8000334600210446FFF703FF78B994F81D313D
:104C9000032B0BD194F81C110239B942A8BF394635
:104CA00089B20446A14203D800232B7003B0F0BDA3
:104CB000331902349B7805F8013BA4B2F2E78378FC
:104CC000012B05D14FF4A06303820023418243618D
:104CD00000221146FFF7F4BD8378012B05D14FF474
:104CE0001063038200234182436100221146FFF7D3
:104CF000E7BD8378012B05D14FF481730361002355
:104D00008182C38200221146FFF7DABD1FB500245D
:104D10000B4611460822CDE90224CDE90043224684
:104D2000234609F00FF8204604B010BD30B585B019
:104D300090F81D530C46002D19469DF82030019423
:104D400018BF0023CDE902230123009300231A4654
:104D500008F0F8FF002005B030BD30B5002485B064
:104D6000CDE902240D460122194601950092234601
:104D700008F0E8FF204605B030BD30B585B090F8AA
:104D80001D530C46002D19469DF82030019418BF84
:104D90000023CDE90223012300930022022308F01F
:104DA000D1FF002005B030BD30B5002485B0CDE97D
:104DB00002240D460122194601950092022308F0B3
:104DC000C1FF204605B030BD1FB5BDF8204002949C
:104DD0009DF81C4001949DF81840009408F092FF43
:104DE000002004B010BD08B508F0A1FF002008BDE8
:104DF00010B500F55E72002352F8044F240408D465
:104E000000EB830041F40041DAB2C0F87C13D0B269
:104E100010BD01330B2BEFD14FF6FF72F7E70A29D4
:104E20009FBF00EB8100D0F87C33C3F30E03C0F8C2
:104E30007C3300207047000030B50E4B5C7A05468D
:104E400004F0FF00A4B95C7A18555C7A03EB840483
:104E500065605C7A1C4422725A7A541CE4B25C721B
:104E60003A2330324B702F230A708B70C87030BDDC
:104E70000120FCE7B00000200022FFF7DDBF08B5ED
:104E800000F0F8FD002008BDEFF305830BB100F042
:104E90003BBE00F033BE30B5044685B0228AB4F97B
:104EA0000840842C14BF0334002403AD0B46D0E922
:104EB0000010CDE9004500F005FD01280CBF039866
:104EC000002005B030BD012000F0C9BA07B50A4680
:104ED00000210191F8B1EFF30583B3B101AA00F00D
:104EE00043FC012803D0FF2003B05DF804FB019BC5
:104EF0004BB14FF0E0234FF08052C3F8042DBFF3C5
:104F00004F8FBFF36F8F0020EEE7194600F06CFB68
:104F10000128F8D0E7E78020E6E707B500230193F2
:104F2000EFF30583B3B101A900F00DFB012803D015
:104F3000FF2003B05DF804FB019B4BB14FF0E02371
:104F40004FF08052C3F8042DBFF34F8FBFF36F8F24
:104F50000020EEE71A46194600F0CFF90128E7D104
:104F6000F6E7012910B508460CD10322002100F014
:104F7000A3F9044620B100231A46194600F0BDF9F2
:104F8000204610BD0024FBE707B50A460021019129
:104F9000F8B1EFF30583B3B101AA00F0E5FB0128F6
:104FA00003D0FF2003B05DF804FB019B4BB14FF031
:104FB000E0234FF08052C3F8042DBFF34F8FBFF3AF
:104FC0006F8F0020EEE7194600F00EFB0128F8D0A5
:104FD000E7E78020E6E7FFF7A0BFD0E90001002265
:104FE00000F06AB91FB5019100210391EFF3058329
:104FF000C3B10B4603AA01A900F049FA012803D066
:10500000FF2005B05DF804FB039B4BB14FF0E0239C
:105010004FF08052C3F8042DBFF34F8FBFF36F8F53
:105020000020EEE7012A38BF012201A900F065F94E
:105030000128F5D0E4E730B585B0002305461446D5
:1050400008460391029311B98023019318E000935D
:10505000EFF30583E3B16A4602A900F085FB431E26
:1050600058425841009B000101904BB14FF0E023A2
:105070004FF08052C3F8042DBFF34F8FBFF36F8FF3
:1050800004AB13E9070085E80700284605B030BDEA
:1050900002A900F0A9FA012801D11023D5E7003CAC
:1050A00018BF0124A4010194EAE708B500F0C8FF85
:1050B000012803D0BDE8084001F03CB908BD00F16B
:1050C00008034FF0FF32C0E902234360036100236D
:1050D0000360704700230361704743684B609A6820
:1050E0008A6051609960036808610133036070470A
:1050F00030B50C68631C0AD103695A684A60916034
:105100008B605960036808610133036030BD00F1B2
:105110000802134652681568A542FAD9EDE7D0E9AE
:10512000011203698A6051605968814208BF5A6060
:1051300000220261186801381860704770B5164681
:10514000026C856B044642B906689EB9406800F05F
:10515000CFFF66600135A56370BD6EB9806809F048
:10516000B8FAA368226C13446268A360934224BF18
:105170002368A3600020EDE7C06809F0AAFA226C5A
:10518000E36851429B1A2268E36093423EBF636822
:105190005B18E360022EEDD10DB1013DEAE7284630
:1051A000D8E7034610B41A6C08466AB1DC6859683F
:1051B00014448C4228BF1968DC6028BFD960D968C4
:1051C0005DF8044B09F085BA5DF8044B704770B583
:1051D000044601F047F894F8455004F124066DB2F6
:1051E000002D01DD636AB3B9FF2384F8453001F077
:1051F00059F801F037F894F8445004F110066DB2F4
:10520000002D01DD23697BB9FF2384F84430BDE81C
:10521000704001F047B8304600F080FE08B100F061
:1052200009FF013D6DB2DBE7304600F077FE08B1C3
:1052300000F000FF013D6DB2E2E738B50D460446CF
:1052400040B94FF0500383F31188BFF36F8FBFF362
:105250004F8FFEE701F006F8D4E90F312268A26013
:105260004B43D0185B1A1A446060FF230020A063F0
:10527000E26084F8443084F84530A5B9236973B1FD
:1052800004F1100000F04AFE48B14FF0E0234FF067
:105290008052C3F8042DBFF34F8FBFF36F8F01F01F
:1052A00001F8012038BD04F11000FFF708FF04F1F8
:1052B0002400FFF704FFF2E770B50D46064640B93B
:1052C0004FF0500383F31188BFF36F8FBFF34F8FFD
:1052D000FEE74843483001F01BF9044648B155B198
:1052E00000F14803C4E90F65236001212046FFF760
:1052F000A4FF204670BD0346F4E72DE9FF410F46A9
:1053000001921E46044640B94FF0500383F31188C2
:10531000BFF36F8FBFF34F8FFEE751B9036C43B1FB
:105320004FF0500383F31188BFF36F8FBFF34F8F9C
:10533000FEE7022E0BD1E36B012B08D04FF0500398
:1053400083F31188BFF36F8FBFF34F8FFEE700F039
:1053500077FE054620B300254FF0000800F082FFDD
:10536000A26BE36B9A4227D2324639462046FFF7BA
:10537000E5FE636A1BB104F1240000F0CFFD48B1E3
:105380004FF0E0234FF08052C3F8042DBFF34F8F4E
:10539000BFF36F8F00F086FF012004B0BDE8F081FD
:1053A000019B002BD8D04FF0500383F31188BFF33B
:1053B0006F8FBFF34F8FFEE7022ED5D0019B1BB935
:1053C00000F070FF0020E8E715B902A800F0E8FD42
:1053D00000F068FF00F08AFB00F044FF94F84430CE
:1053E000FF2B08BF84F8448094F84530FF2B08BF9A
:1053F00084F8458000F056FF01A902A800F0E0FD06
:1054000038BB00F02FFFA26BE36B9A420ED100F085
:1054100049FF019904F1100000F066FD2046FFF7F6
:10542000D6FE00F011FC48B1012597E700F03AFFE5
:105430002046FFF7CCFE00F007FCF5E74FF0E02335
:105440004FF08052C3F8042DBFF34F8FBFF36F8F1F
:10545000EAE72046FFF7BBFE00F0F6FBB2E738B5FF
:10546000482001F055F8044678B100250121C0E933
:105470000F150060FFF7E1FEC4E90055E5602B461B
:105480002A4629462046FFF738FF204638BD2DE939
:10549000F843894617461E46044640B94FF050036C
:1054A00083F31188BFF36F8FBFF34F8FFEE751B9BE
:1054B000036C43B14FF0500383F31188BFF36F8F38
:1054C000BFF34F8FFEE7022E0BD1E36B012B08D009
:1054D0004FF0500383F31188BFF36F8FBFF34F8FEB
:1054E000FEE700F0C1FFEFF311884FF0500383F3A4
:1054F0001188BFF36F8FBFF34F8FA26BE36B9A429C
:1055000001D3022E1DD194F8455032466DB2494662
:105510002046FFF713FE6B1C0ED1636A3BB104F10A
:10552000240000F0FBFC10B10FB101233B6001200F
:1055300088F31188BDE8F88301356DB284F84550D1
:10554000F5E70020F4E770B50D46044640B94FF08A
:10555000500383F31188BFF36F8FBFF34F8FFEE7C4
:10556000036C43B14FF0500383F31188BFF36F8F87
:10557000BFF34F8FFEE7036853B9436843B14FF061
:10558000500383F31188BFF36F8FBFF34F8FFEE794
:1055900000F06AFFEFF311864FF0500383F3118898
:1055A000BFF36F8FBFF34F8FA26BE36B934219D999
:1055B00094F845100132FF294BB2A2630DD1636A02
:1055C0003BB104F1240000F0A9FC10B10DB101239E
:1055D0002B60012086F3118870BD01335BB284F823
:1055E0004530F6E70020F5E72DE9F04385B00E469B
:1055F00001929846044640B94FF0500383F3118856
:10560000BFF36F8FBFF34F8FFEE751B9036C43B108
:105610004FF0500383F31188BFF36F8FBFF34F8FA9
:10562000FEE700F00DFD054670BB019B73BB4FF01C
:10563000000900F017FEA76B002F37D03146204637
:10564000E568FFF7AEFDB8F1000F28D12368013FF0
:10565000A76313B900F09CFD6060236973B104F186
:10566000100000F05BFC48B14FF0E0234FF0805297
:10567000C3F8042DBFF34F8FBFF36F8F00F012FEFE
:10568000012005B0BDE8F0830025D0E74FF05003BE
:1056900083F31188BFF36F8FBFF34F8FFEE7636A09
:1056A000E560002BEAD004F12400DAE7019B1BB986
:1056B00000F0F8FD0020E4E715B902A800F070FC46
:1056C00000F0F0FD00F012FA00F0CCFD94F8443048
:1056D000FF2B08BF84F8449094F84530FF2B08BF97
:1056E00084F8459000F0DEFD01A902A800F068FCF6
:1056F00068BB00F0B7FDA36B03BB00F0D3FD2368CC
:1057000033B900F0AFFD606800F0AAFC00F0CAFDFC
:10571000019904F1240000F0E7FB2046FFF757FD54
:1057200000F092FA88B94FF0E0234FF08052C3F8AE
:10573000042DBFF34F8FBFF36F8F06E000F0B2FD73
:105740002046FFF744FD00F07FFA012571E720466F
:10575000FFF73DFD00F078FA00F084FDA36B002B0D
:10576000A6D000F09FFDF0E72DE9F843894690466A
:10577000044640B94FF0500383F31188BFF36F8F95
:10578000BFF34F8FFEE751B9036C43B14FF05003A5
:1057900083F31188BFF36F8FBFF34F8FFEE700F0E5
:1057A00063FEEFF311874FF0500383F31188BFF3CB
:1057B0006F8FBFF34F8FA56B0DB394F844604946CC
:1057C00076B22046FFF7EDFC013D731CA56311D1B5
:1057D000236953B104F1100000F0A0FB28B1B8F127
:1057E000000F02D00123C8F80030012087F3118890
:1057F000BDE8F883013676B284F84460F5E72846C0
:10580000F4E70000F8B51A4B1A4D1C6806462868E4
:1058100004300F46FFF783FC40B92A681649D06A66
:105820000B680122824023EA02030B60731C07D13C
:1058300037B129681148BDE8F8400431FFF74DBC85
:105840002B68A4195C6007D30D4B18682968BDE864
:10585000F8400431FFF74CBC0A4B18682968043142
:10586000FFF746FC084B1A68A24288BF1C60F8BDCF
:10587000E0000020E4010020DC000020E80000201F
:10588000280100202C010020C4000020064A1368D3
:105890001968064B19B94FF0FF321A607047126849
:1058A000D268D2685268F8E72C010020C4000020BA
:1058B0004FF0500383F31188BFF36F8FBFF34F8F07
:1058C000FEE700002DE9F84F950006462846DDF872
:1058D0002C808A461F4600F01BFE814618B94FF007
:1058E000FF30BDE8F88F542000F012FE0446002877
:1058F00000F0A280C0F830902A464846A52108F062
:1059000063FE236B043D2B4423F0070904F13302AB
:105910000AF1FF330AF10F0A13F8011F02F8011F01
:1059200009B15345F8D10A9D062D28BF06254FF031
:10593000000B04F1040AC4E9115BE562504684F8E7
:1059400043B0FFF7C7FBC5F1070504F11800FFF7E7
:10595000C1FBC4F84CB02461A561646284F850B006
:105960003A463146484600F051FC2060B8F1000F3D
:1059700001D0C8F8004000F075FC314B314F1A6877
:10598000314E01321A603D68002D4AD13C601B68DF
:10599000012B1FD1B04640460135FFF790FB072D84
:1059A00008F11408F7D1DFF8C880284D4046FFF70A
:1059B00086FB2846FFF783FB2548FFF780FB254839
:1059C000FFF77DFB2448FFF77AFB244BC3F80080E8
:1059D000234B1D60234A2449136808680133136070
:1059E000E26A01239340034314200B6000FB026032
:1059F0005146FFF772FB00F055FC1C4B1B6873B15E
:105A00003B68DA6AE36A9A4209D24FF0E0234FF02A
:105A10008052C3F8042DBFF34F8FBFF36F8F012067
:105A20005FE7124B1A68E36A002AD3D13A68D26A58
:105A30009A4298BF3C60CDE7484600F0FBFD4EE738
:105A4000E4000020E4010020580100203001002083
:105A50001401002000010020E80000202C0100209B
:105A600028010020C8000020DC000020D800002011
:105A70004401002013B5174B019300241649174821
:105A8000009423468022FFF71DFF012814D14FF018
:105A9000500383F31188BFF36F8FBFF34F8F104B09
:105AA0004FF0FF321A600F4B18600F4B1C6002B0B2
:105AB000BDE8104000F064BC013008D14FF0500345
:105AC00083F31188BFF36F8FBFF34F8FFEE702B0F0
:105AD00010BD00BFC0000020F4F40008115E0008F3
