:020000040800F2
:1000000000000320110001086100010861000108DF
:1000100061000108610001086100010800000000A2
:1000200000000000000000000000000081800008C7
:100030006100010800000000118100085DF900085E
:100040006100010861000108610001086100010808
:10005000610001086100010861F900086100010800
:1000600061000108610001086100010861000108E8
:1000700069F900086100010875F9000861000108CC
:1000800061000108610001086100010861000108C8
:1000900061000108610001086100010861000108B8
:1000A00061000108610001086100010861000108A8
:1000B0006100010861000108610001086100010898
:1000C0006100010861000108610001086100010888
:1000D00061000108610001086100010881F9000860
:1000E0008DF9000861000108610001086100010844
:1000F0006100010861000108610001086100010858
:100100006100010861000108610001086100010847
:10011000610001086100010895F90008610001080B
:100120006100010861000108610001086100010827
:1001300061000108A1F900086100010861000108DF
:10014000610001086100010861000108ADF90008C3
:1001500061000108610001086100010861000108F7
:1001600061000108610001086100010861000108E7
:100170006100010861000108610001080000000041
:1001800061000108610001086100010861000108C7
:1001900061000108610001086100010861000108B7
:0C01A00061000108610001086100010815
:1001B00010B5054C237833B9044B13B10448AFF3A1
:1001C00000800123237010BD980000200000000073
:1001D0006816010808B5034B1BB103490348AFF388
:1001E000008008BD000000009C0000206816010887
:1001F000034613F8012B002AFBD1181A0138704767
:1002000001F0FF01102A2BDB10F0070F08D010F8C7
:10021000013B013A8B422DD010F0070F42B3F6D1CB
:10022000F0B441EA012141EA014122F007047FF0E4
:1002300000070023F0E80256083C85EA010586EA3B
:10024000010685FA47F5A3FA87F586FA47F6A5FA77
:1002500087F68EB9EED1F0BC01F0FF0102F0070283
:1002600032B110F8013B013A83EA010313B1F8D12E
:100270000020704701387047002D06BF354603380F
:10028000073815F0010F07D1013015F4807F02BF48
:10029000013015F4C03F0130F0BC0138704700BF99
:1002A00053B94AB9002908BF00281CBF4FF0FF31DD
:1002B0004FF0FF3000F06EB9ADF1080C6DE904CEDF
:1002C00000F006F8DDF804E0DDE9022304B0704731
:1002D0002DE9F047089D04468C46002B40F08380B2
:1002E0008A42174647D9B2FA82F242B1C2F12000DF
:1002F00024FA00F09140974040EA010C94404FEA04
:100300001748230CBCFBF8F61FFA87FE08FB16C142
:1003100043EA014306FB0EF1994209D9FB1806F1A5
:10032000FF3080F01981994240F21681023E3B4431
:100330005B1AA4B2B3FBF8F008FB103344EA0344A1
:1003400000FB0EFEA64509D93C1900F1FF3380F0F1
:100350000581A64540F2028102383C4440EA06404D
:10036000A4EB0E0400261DB1D4400023C5E90043D0
:100370003146BDE8F08702B9FFDEB2FA82F2002A08
:1003800050D1CB1B4FEA174E1FFA87F80126B3FB5B
:10039000FEFC210C0EFB1C3341EA034108FB0CF36D
:1003A0008B4207D979180CF1FF3002D28B4200F250
:1003B000E9808446C91AA3B2B1FBFEF00EFB10110E
:1003C00043EA014408FB00F8A04507D93C1900F1B5
:1003D000FF3302D2A04500F2D9801846A4EB0804EE
:1003E00040EA0C40BFE78B4209D9002D00F0B180F4
:1003F0000026C5E9000130463146BDE8F087B3FA72
:1004000083F6002E4AD18B4202D3824200F2B8809A
:10041000841A61EB030101208C46002DA8D0C5E9A8
:10042000004CA5E7C2F1200320FA03F6974001FA39
:1004300002F04FEA174ED9403043030CB1FBFEF6F1
:100440001FFA87F80EFB161143EA014306FB08F179
:10045000994204FA02F409D9FB1806F1FF3C80F036
:100460008D80994240F28A80023E3B445B1A81B201
:10047000B3FBFEF00EFB103341EA034100FB08F32F
:100480008B4207D9791800F1FF3C73D28B4271D9A6
:1004900002383944CB1A40EA064678E7C6F1200C08
:1004A00003FA06F422FA0CF31C4320FA0CF701FAC3
:1004B00006F34FEA144E21FA0CF11F433B0CB1FB3B
:1004C000FEF91FFA84F80EFB191143EA014109FBFA
:1004D00008FA8A4502FA06F200FA06F308D961180A
:1004E00009F1FF3048D28A4546D9A9F102092144D1
:1004F000A1EB0A01BFB2B1FBFEF00EFB101147EAFF
:10050000014700FB08F8B84507D9E71900F1FF31AA
:100510002ED2B8452CD90238274440EA0940A7EB2F
:100520000807A0FB02894F45C64649461AD317D093
:100530005DB1B3EB0E0267EB010707FA0CFCF2406A
:100540004CEA0202F740C5E9002700263146BDE823
:10055000F0872E4628460BE70646E9E61846FDE6F4
:100560004345E5D2B8EB020E69EB04010138DFE741
:100570000846D2E760468DE78146B9E7664675E7EB
:1005800030464AE7ACF1020C394413E702383C44E8
:1005900024E700BF704700BF08B50B4B1A6842F450
:1005A00000721A601A6842F480621A601A6842F493
:1005B00080721A60032000F02FF800200FF090F9ED
:1005C0000FF0A4F8002008BD003C0240034A044B91
:1005D00011681B780B441360704700BFF0A3002024
:1005E00000000020014B1868704700BFF0A30020F6
:1005F00038B50446FFF7F6FF631C1CBF054B1B789C
:10060000054618BFE418FFF7EDFF431BA342FAD3DA
:1006100038BD00BF000000200749CA6822F4E0622C
:100620000302120403F4E063120C134343F0BF63AC
:1006300043F40033CB60704700ED00E0164B30B55B
:10064000DC68C4F30224C4F10705231D042D28BF70
:100650000425062B4FF0FF338CBF033C002403FA24
:1006600005F521EA0501A34022EA0302A140002882
:1006700041EA0203ACBF00F16040084A4FEA0313AD
:10068000B8BF00F00F00DBB2AABF00F56140135401
:1006900080F8003330BD00BF00ED00E014ED00E055
:1006A0004209012300F01F0003FA00F0014B43F858
:1006B0002200704700E100E00138B0F1807F0AD2EB
:1006C000064B074A5860F02182F8231000200722C9
:1006D00098601A6070470120704700BF10E000E08A
:1006E00000ED00E0044B1A6804280CBF42F004023D
:1006F00022F004021A60704710E000E0036810B5B1
:10070000084C0246D9B210391820B1FBF0F0205C39
:10071000D06523F47F7020F003005F2988BF043088
:10072000906510BDC416010870B50446FFF75AFF66
:100730000546002C73D0002384F83430226802234D
:1007400084F83530136823F00103136021680B68C7
:10075000D8072FD40B68334DA0691D40D4E901237D
:100760001343E26813432269134362691343E26946
:1007700003431343226A1343626A042A43EA0503CC
:1007800002BFD4E90B5635432B430B604B69042A57
:1007900023F0070343EA020333D1A26AE56A134355
:1007A0007DB390B9012A21D032F0020229D1EA01A9
:1007B00027D51EE0FFF716FF401B0528C6D92023CA
:1007C0006365032084F8350070BDB0F5005F14D177
:1007D000032A16D801A050F822F000BFF307000842
:1007E000AF070008F3070008ED070008B5F1C07F68
:1007F00007D1402363650120E4E7022AF9D9032ADF
:10080000D5D04B612046FFF779FFE26D3F2393403F
:10081000836000200123606584F83530D4E701202F
:10082000D2E700BF3F8010F090F83530022B03D0A4
:1008300080234365012070470268052380F8353026
:10084000136823F00103136000207047F7B50023FD
:1008500001935C4B856D1F68C36D2E6808229A401A
:10086000324204460CD001680868400708D5086881
:1008700020F004000860AA60626D42F00102626527
:1008800001229A40324208D021684969090641BFD5
:10089000AA60626D42F00202626504229A4032420E
:1008A00008D021680968880741BFAA60626D42F0DC
:1008B0000402626510229A40324210D023681968FF
:1008C00009070CD5AA601A68500337D51B681903AD
:1008D00001D4236C00E0A36C0BB120469847E16D76
:1008E00020228A4032423AD023681868C60636D59C
:1008F000AA6094F83520052A1A6827D122F016023A
:100900001A605A6922F080025A61226C0AB9A26CFC
:100910001AB11A6822F008021A603F238B40AB60BC
:10092000002384F83430012384F83530236D002B04
:1009300045D0204603B0BDE8F04018471A68D205FC
:100940005EBF1A6822F008021A60C2E7500327D57A
:100950001B68190331D4636C0BB120469847636D53
:100960006BB3636DDA0719D522684FF41653B7FBE2
:10097000F3F7052384F83530136823F0010313607F
:10098000019B0133BB42019302D81368DB07F7D404
:10099000002384F83430012384F83530E36CC6E753
:1009A0001A6812F4807208D1196821F010011960D8
:1009B000012384F8342084F83530E36BCCE703B0AE
:1009C000F0BD00BF30000020074B82B01B684FF421
:1009D000FA52B3FBF2F3019300BF019B5A1E01923E
:1009E000002BF9D102B070473000002007B500237A
:1009F000019341F2180103685A5842F480125A5088
:100A00005B580193FFF7E0FF019A03685A5003B067
:100A10005DF804FB70B5044629B14FF480434FF4F0
:100A20000062C0E90232E3692268002BD4E9023592
:100A30000CBF4FF4806100212B4310680B432D49FC
:100A400001400B4343F40073136001201568FFF766
:100A5000CFFD236840221D6001205A605D68FFF7CA
:100A6000C7FD23685D6000259D60DD609A6922F006
:100A7000BE021204120C42F080029A6101209E69AB
:100A8000FFF7B6FD236801209E61DD61DD69FFF798
:100A9000AFFD2268184BD56141F21805012051596C
:100AA0000B4043F0087343F0040353515659FFF7CA
:100AB0009FFD2368114A5E5103F5805301201A609F
:100AC0001D68FFF795FD226802F580531D60A3693C
:100AD000012B07D141F21C01535843F4803343F0FA
:100AE000400353506369064A998811601A68054BA0
:100AF0001A6070BD0F8120FF233FDEF88020C10205
:100B000040800240448002402DE9F04190F8454089
:100B1000012C4FF0020431D0012580F8455080F8B7
:100B20004440C1620C4600254FF4801740F2F45C4B
:100B300003F1FF3E9D420CD1026841F21003D150F7
:100B4000012380F84430002380F845301846BDE882
:100B5000F0810CFB0526A660C66927601EB92668D1
:100B600046F44006266004F12006AE4594BF884650
:100B7000B046C4F80C8001353446DBE72046E6E792
:100B80002DE9F04390F84540012C4FF002042FD09E
:100B9000012580F8455080F8444081620C460025CC
:100BA0004FF0004744F2F45C40F2F45E03F1FF388A
:100BB000AB420CD1026841F20C03D150012380F802
:100BC0004430002380F845301846BDE8F0830EFB22
:100BD0000526A66004F12006A84594BF8946B146C3
:100BE0002760C4F804C0C4F80C9001353446DFE730
:100BF0002046EAE7F0B590F84530012B4FF00203AC
:100C000068D0012280F8452080F8443029B980F866
:100C1000442080F845101046F0BDC36A1C68002CC3
:100C200006DA122380F84430002380F84530F2E7DA
:100C300040F2F454A1422ED9B1FBF4F204FB121499
:100C40003CB30132244C01F2F45104FB0211C1F314
:100C50000C01002440F2F456571E1D6825F0405543
:100C60001D601CB91D6845F080551D60A74208BF76
:100C70001D685E6004BF45F000551D601D6808BF1B
:100C80005960013445F0004594421D60DB68E4D1B1
:100C90000DE0012AD6D11A6842F040521A601A6853
:100CA000C1F30C0142F0004259601A60DB68C36274
:100CB00041F2140203689958490705D50421995057
:100CC00041F2040200219950012380F844300023AE
:100CD00080F8453018469FE70CFAFFFF70B590F892
:100CE0004530012B4FF002033BD0012280F8452014
:100CF00080F8443005241146836A1A68002A01DB13
:100D0000013C06D10123002280F8443080F84520C0
:100D100027E01A68DD6802F44072B2F5007F03D163
:100D2000036381638562E7E71E68826B16F4407F88
:100D300002F1010201D18263F4E7012A08BF0363D3
:100D4000C0E90D321B68C3F30D43043BC363036B5F
:100D50009B680364012380F844300023856280F897
:100D60004530184670BD7047704770B5026841F253
:100D700014060446955915F0400521D00EF01AF9D5
:100D8000236840229A51012384F84430002384F8D8
:100D90004530236841F214054FF480325A515B59B3
:100DA0001B040CD52046FFF7DFFF23684FF40042F9
:100DB0005A51012384F84430002384F8453070BD33
:100DC0009359DA07E5D5FFF7CEFF22680123935147
:100DD00084F8443084F84550DBE7F8B590F84430A7
:100DE000822B0646154631D0822380F84430348A5F
:100DF0000368E4021869890101F4F861A4B200F003
:100E00001C000C43044344F001041C61FFF7EAFB9F
:100E1000074614F0010408D133685B699BB22B606C
:100E2000012386F8443020460CE0FFF7DBFBC01BB3
:100E3000B0F5803F07D3012386F84430002386F8BD
:100E400045300320F8BD33681C69E2E70220F9E76A
:100E500070B590F84430422B05462FD0422380F8DD
:100E600044302C8A0368E4021869890101F4F861AE
:100E7000A4B200F01C000C43044392B244F00304FB
:100E80005A611C61FFF7AEFB064614F0010404D161
:100E9000012385F8443020460CE0FFF7A3FB801BBC
:100EA000B0F5803F07D3012385F84430002385F84F
:100EB0004530032070BD2B681C69E6E70220F9E786
:100EC000F7B5002300930446002800F0DF8090F877
:100ED000443003F0FF021BB980F845200EF002F801
:100EE000002301936A4B5A6C42F480425A645B6C53
:100EF00003F480430193019B664B5A6822F400027D
:100F00005A605A68216A0A435A60236803F580537D
:100F10001A6842F001021A60FFF764FB0546236875
:100F200003F580521268D0071DD41D6901F08CF8BA
:100F3000594B5A4A0344934225F01C0522D245F0EE
:100F4000080523684FF400421D6100212046FFF789
:100F50007FFF054668B3012120460125FFF75AFDB2
:100F600084F844500BE0FFF73DFB401BB0F5FA7FDF
:100F7000D5D90325002384F8445084F84530284609
:100F800003B0F0BD464B474A0344934202D845F0B4
:100F90000C05D6E7444B454A03449342D1D3444B16
:100FA000444A0344934294BF45F0040545F01005BC
:100FB000C7E7FF20FFF71CFB6368002B54D0FFF747
:100FC00011FB41F2883706466A4601212046FFF7A9
:100FD00004FFFFF707FB801BB8420BD90121204615
:100FE000FFF718FD012384F84430002384F84530CE
:100FF0000325C4E7009B5907E6D54FF48052002132
:101000002046FFF725FF0028A5D1FFF7EBFA41F2B4
:10101000883706466A4601212046FFF7DEFEFFF7C5
:10102000E1FA801BB842D9D8009B9A06F2D56A46ED
:1010300010212046FFF7D1FE00288CD1009B13F031
:10104000040218BF4FF400629B0758BF4FF480435F
:10105000E2604CBFA060A36000212046FFF7DAFCED
:10106000012384F844308AE7D4E902325B0843EA7A
:10107000D20292B229462046FFF7EAFE00287FF40A
:101080006AAF40F6FF70FFF7B3FAE5E7012576E7B0
:10109000003802400038014000D3CEFEC0E1E40039
:1010A00040F1E9FD3F787D0100796CFC005A620255
:1010B000001F0AFA7FF0FA0237B590F84530012B8D
:1010C0004FF002042FD080F844400368002401252B
:1010D00080F8455001941A6842F008021A601B68B3
:1010E0000193FFF771FC0368019A1A6000941A6873
:1010F00042F004021A601B680093FFF765FC036866
:10110000009A1A60FFF772FC41F218030268D15886
:1011100041F40051D150D15841F00201D15080F832
:10112000445080F84540204603B030BD2DE9F04FD3
:10113000744ADFF8D881DFF8D89185B000230C68B5
:1011400001279F4007EA040537EA040440F0C18004
:101150004C6824F0100ABAF1020F16D14FEAD30EF0
:1011600000EB8E0E03F0070BDEF820604FEA8B0BCE
:101170004FF00F0C0CFA0BFC26EA0C0C0E6906FA69
:101180000BF646EA0C06CEF82060D0F800B04FEA25
:10119000430E4FF0030C0CFA0EFC6FEA0C062BEA20
:1011A0000C0B04F0030C0CFA0EFC0AF1FF3A4CEAAB
:1011B0000B0CBAF1010F0196C0F800C015D8D0F899
:1011C00008C006EA0C0CCE6806FA0EFA4AEA0C0CC5
:1011D000C0F808C0D0F804C02CEA0707C4F3001C0C
:1011E0000CFA03FC4CEA07074760C768019E3740CA
:1011F0008E6806FA0EF63E43C660E60069D54FF0EB
:10120000000BCDF80CB0D8F844703F4E47F480473F
:10121000C8F84470D8F8447007F480470397039FD8
:1012200023F0030707F1804707F59C3703F0030E0F
:10123000D7F808A04FEA8E0E4FF00F0C0CFA0EFCF8
:10124000B0422AEA0C0C4BD006F58066B04249D079
:1012500006F58066B04247D006F58066B04245D0BC
:1012600006F58066B04243D0484543D006F5006697
:10127000B04241D006F58066B0423FD006F58066A8
:10128000B0423DD006F58066B0420CBF09260A2662
:1012900006FA0EF646EA0C06BE601668EF4314F432
:1012A000803F0CBF3E402E431660566814F4003F4A
:1012B0000CBF3E402E435660966814F4801F0CBF4E
:1012C0003E402E439660D668A40254BF3E402E4353
:1012D000D6600133102B7FF432AF05B0BDE8F08F3C
:1012E0005E46D5E70126D3E70226D1E70326CFE7FE
:1012F0000426CDE70526CBE70626C9E70726C7E77C
:101300000826C5E7003C01400000024000380240CA
:10131000001402400AB1816170470904FBE7436988
:101320005940416170477047044A5169014208B50C
:1013300002D05061FFF7F7FF08BD00BF003C01403D
:101340002DE9FF4105469DF828C095F890429DF88B
:101350002CE0BDF83080012C23D0012485F8904288
:10136000282404FB0154D00902F07F0684F83830A9
:1013700084F8391084F83FE084F83A6084F83B0040
:1013800084F83CC0A4F840802868CDF800C0CDE9BE
:1013900001E801F0C7FF002385F8903204B0BDE8F2
:1013A000F0810220FAE710B590F89032012B044644
:1013B00009D0012380F89032006801F07EFC002003
:1013C00084F8900210BD0220FCE72DE9F0410746A9
:1013D0008AB0A0B303233C4680F891320EF048FC5B
:1013E00054F8100B01F060FE0FCC6D460FC50FCC0A
:1013F0000FC594E8030085E8030007F104083E46A2
:1014000098E80E00386801F00FFE56F8100B012125
:1014100001F050FE0FCE6D460FC50FCE0FC594E8FC
:10142000030085E8030098E80E00386801F0FAFE32
:10143000012387F8913200200AB0BDE8F081012035
:10144000FAE72DE9F0419DF818C0079EBDF820503D
:101450009DF82470282404FB010EBCF1000F14BF7A
:101460004FF002084FF003088EF83B208EF83F3013
:101470008EF84280032B19D8DFE803F0025533447D
:10148000BCF1010F12D18AB9282303FB010315BB5C
:1014900083F851C00222282303FB010383F8422072
:1014A00093F85C20022A01D083F83D70282404FBC5
:1014B0000103002283F8391083F85C2083F85D2053
:1014C0001946C3E91165DA64BDE8F041027C0068A1
:1014D000383101F0ABBA93F85120002A18BF02222C
:1014E000D9E704FB0104B2B994F85120002A18BFCF
:1014F0001A4694F85C3084F84220022BD6D084F847
:101500003D70D3E704FB01042AB994F8513043B984
:1015100084F84220CAE794F8503013B984F8423076
:10152000C4E70223FAE704FB01040023F6E7000006
:101530002DE9F04F066887B00546304601F01AFEE7
:10154000012840F0EA80286801F010FE002800F031
:10155000E480286801F00AFE800248BF2B682868F2
:1015600044BF4FF400125A6101F000FEC10248BFAF
:101570002B68286844BF4FF480125A6101F0F6FDD1
:10158000420148BF2B68286844BF4FF080625A610F
:1015900001F0ECFD830748BF2B68286844BF022296
:1015A0005A6101F0E3FD870010D5D6F8403423F0EE
:1015B0002E03C6F8403428460EF09EFB2868012111
:1015C00001F0DCFD2B684FF000525A61286801F0F1
:1015D000CDFDC40140D52C68D4F840340493D4F830
:1015E00040340593059B23F02E030593049B980735
:1015F0000DD5049BD90706D5A36923F00053A36139
:1016000028460EF075FB059B43F002030593049BEF
:101610001A0717D5059B43F008030593049B5B0746
:1016200040F18680A96902297AD1049B286803F4D5
:10163000C023B3F5802F18BF012101F09FFD28467C
:101640000EF056FB049B9F0642BF059B43F0200310
:101650000593059BC4F84034286801F087FD000716
:1016600005D528460EF040FB2B6808225A612868F1
:1016700001F07CFD810112D5286801F00FFB06F511
:10168000A06301904FF000084FF001090293282752
:10169000AB682868434557D84FF00073436128680A
:1016A00001F064FDC30638D52C68A36923F010034C
:1016B000A361276AC7F34343022B29D1C7F30A1852
:1016C000B8F1000F24D007F00F07282606FB0756B5
:1016D000716CE9B14246204601F03AFD04F5A06480
:1016E000736CF26C04EB4714434442447364F26439
:1016F000BA4B226913405BB1236823F0804343F067
:101700000043236096F8503083F0010386F8503090
:101710002A68936943F01003936107B0BDE8F08F26
:10172000EB68032B04BF4EF66022C4F8042486E75E
:10173000D4F840342A6823F02E03C4F84034936967
:1017400043F0005393617DE7019A09FA08F31342CD
:1017500000F08380029A4FEA48135FFA88F699589E
:1017600000F5A06A0A044FEA461B0AEB461440F152
:10177000FA80A1684B0713D50421A160E16841F00C
:101780000201E160A168880539D5E368286843F063
:101790000203E360314601F090FA4FF400731AE15E
:1017A000A168890602D52021A160EBE7A1680A079C
:1017B00011D5E16841F00201E16007FB06514FF0ED
:1017C000050C81F85DC01021A1600821A16031469F
:1017D00001F073FAD6E7A1684B05D3D5E16841F073
:1017E0000201E160314601F068FA1021A16007FBB7
:1017F0000651082081F85D004FF48061D4E7A168AC
:10180000C9073DD5296949B107FB065C2069DCF8A9
:101810004810C0F31200091ACCF84C1007FB06510F
:101820000020886581F85D90C4F8089091F83F0029
:1018300010F0FD0F14D1E368286843F00203E36061
:10184000314601F03AFA1023A36007FB065696F8DA
:10185000503083F0010386F8503008F1010817E793
:101860000328F2D15BF80A0040F000504BF80A0060
:10187000012281F85C90284631460EF041FAE4E7F7
:10188000A1688A0734D5E16807FB065021F0020100
:10189000E16090F85D1001290CD180F85C10022302
:1018A000A36007FB0653314693F85C2028460EF0F0
:1018B00027FAD2E70529F0D0062901D00829EED170
:1018C00007FB0651886D032800F1010388BF002043
:1018D0008B6592BF02208865042081F85C005BF86C
:1018E0000A1021F0804141F000414BF80A10D6E780
:1018F000A1680B0611D5E36807FB065243F002030B
:10190000E360936D01339365062382F85D302868A8
:10191000314601F0D2F980235DE0A168C8069CD56C
:1019200007FB065191F83F10032907D1E1682868A9
:1019300041F00201E160314601F0BFF907FB0656B4
:10194000032186F85D101021A16096F83F1011F078
:10195000FD0F82D15BF80A1021F0804141F0004177
:101960004BF80A1079E7A368590706D50423A3604A
:10197000E36843F00203E3606FE7A36813F020031A
:1019800018D02023A36007FB065393F83D20012ABB
:101990007FF463AF042283F85D20E268039342F092
:1019A0000202E260314601F088F9039B022283F8CB
:1019B0005C2052E7A268520612D507FB06520421AA
:1019C00082F85D109365E36843F00203E3603146FB
:1019D00001F073F94023A3603FE700BF0000F81F48
:1019E000A36813F4007305D0E36843F00203E360D7
:1019F0003146D0E6A268D10710D507FB0652314622
:101A00009365E368039243F00203E36001F055F944
:101A1000039AC4F8089082F85D901EE7A3681A073D
:101A20000ED50823A360E36843F00203E360314668
:101A300001F043F907FB0656052386F85D300CE7F5
:101A4000A368DB0611D507FB065300229A65E268FE
:101A5000039342F00202E260314601F02EF9039B4B
:101A6000032283F85D201023B5E7A36819060CD57F
:101A7000E36843F00203E360314607FB065601F0DA
:101A80001CF9062386F85D3045E7A16811F48061F2
:101A90000FD0E36843F00203E360314601F00DF933
:101AA0001023A3604FF48063A36007FB065608234E
:101AB000C3E7A3689A077FF5D0AEE36823F002037B
:101AC000E36007FB065393F85D20012A0DD183F8EC
:101AD0005C2093F83F20022A7FF4E1AE93F8512076
:101AE00082F0010283F85120D9E6032A4FF0020068
:101AF00002D183F85C00D2E6042A04D183F85C00AA
:101B000083F83D10CBE6052A02D183F85C20C6E6B7
:101B1000062A02D0082A7FF4C2AE07FB06539A6D4C
:101B2000032A02F1010188BF0022996592BF0222B7
:101B30009A650422E9E700BF38B590F89032012B8E
:101B400004460DD0012580F89052006801F0A6FAF5
:101B50002068294601F048FB002084F8900238BD37
:101B60000220FCE710B590F89032012B044609D012
:101B7000012380F89032006801F0BAF9002084F85F
:101B8000900210BD0220FCE7006801F014BB28237E
:101B900003FB010090F85C007047282303FB010061
:101BA000C06C7047006801F0B8BB006801F0ACBBC6
:101BB0002DE9F341044618B9012002B0BDE8F081D7
:101BC0000368DD0710D4236898075BD423681A07DD
:101BD00000F19D8023685B0700F1BB80A269002AA9
:101BE00040F01C810020E8E7A54B9A6802F00C0247
:101BF000042A07D09A6802F00C02082A0AD15A680F
:101C0000510207D59E4B1B689A03DCD56368002BF5
:101C1000D9D1D1E76268B2F5803F11D11A6842F498
:101C200080321A60FEF7DEFC954E054633689B0352
:101C3000C9D4FEF7D7FC401B6428F7D90320BCE7C2
:101C40008F4DB2F5A02F2B6807D143F480232B6072
:101C50002B6843F480332B60E4E723F480332B605C
:101C60002B6823F480232B60002ADBD1FEF7BAFC1B
:101C700006462B689F03A6D5FEF7B4FC801B64289C
:101C8000F7D9DBE77E4B9A6812F00C0F07D09A6801
:101C900002F00C02082A11D15B685E020ED4784B68
:101CA0001A68950702D5E268012A85D11A68216968
:101CB00022F0F80242EAC1021A6087E7E268714B3B
:101CC000B2B101221A60FEF78DFC6D4D06462B68FD
:101CD000980707D52B68226923F0F80343EAC2036B
:101CE0002B6073E7FEF77EFC801B0228EFD9A5E787
:101CF0001A60FEF777FC624E0546336899077FF558
:101D000065AFFEF76FFC401B0228F6D996E76269C3
:101D10005D4B7AB101221A60FEF764FC584E05460D
:101D2000736F9F073FF556AFFEF75CFC401B022820
:101D3000F6D983E71A60FEF755FC514E0546736FDE
:101D400098077FF547AFFEF74DFC401B0228F6D9F8
:101D500074E74B4B1A6C12F0805228D101921A6C26
:101D600042F080521A641B6C03F080530193019B74
:101D70000127464D2B68D9051BD5A368404D012B83
:101D800027D12B6F43F001032B67FEF72BFC3C4E52
:101D9000054641F28838336F9B0739D5002F3FF451
:101DA0001DAF374A136C23F08053136416E70027E6
:101DB000DFE72B6843F480732B60FEF713FC0646C5
:101DC0002B68DA05D9D4FEF70DFC801B0228F7D961
:101DD00034E7052B04D12B6F43F004032B67D0E7C6
:101DE0002A6F22F001022A672A6F22F004022A6772
:101DF000002BCAD1FEF7F6FB41F2883806462B6F5E
:101E00009807CBD5FEF7EEFB801B4045F7D915E7C9
:101E1000FEF7E8FB401B4045BDD90FE7184DAB6806
:101E200003F00C03082B3FF4C7AE194E0023022A1F
:101E3000336035D1FEF7D6FB07462B68990129D4CC
:101E4000D4E907321343626A43EA8213E26A43EA3F
:101E50000263A26A5208013A43EA02436B6001231B
:101E60003360FEF7BFFB064D04462B689A013FF531
:101E7000B9AEFEF7B7FB001B0228F6D9DEE600BFBD
:101E80000038024000004742800E47420070004088
:101E900060004742FEF7A6FBC01B0228CDD9CDE665
:101EA000FEF7A0FB04462B689B017FF59BAEFEF777
:101EB00099FB001B0228F6D9C0E600BF134908B5FC
:101EC0008B6803F00C03042B1CD0082B1CD14A6830
:101ED0004B68496813F4800314BF0D480D48C1F3E3
:101EE000881118BF002302F03F02A1FB0001FEF79A
:101EF000D7F9064B5B68C3F3014301335B00B0FBCA
:101F0000F3F008BD0248FCE70248FAE70038024057
:101F100000127A000024F4002DE9F0410D46044639
:101F200010B90120BDE8F081434B1A6802F00F029E
:101F30008A4227D3226897072CD4D00740D43E4B3F
:101F40001A6802F00F02AA4265D8226851076BD4C2
:101F5000130707D5394A2169936823F4604343EA9C
:101F6000C1039360FFF7AAFF344B354A9B68C3F364
:101F70000313D35CD840334B186000200DF0B0FC45
:101F80000020CFE7CAB21A701B6803F00F038B4220
:101F9000C7D1CFE7294B12F0040F1EBF996841F457
:101FA000E0519960160742BF996841F46041996019
:101FB0002249A0688B6823F0F00303438B60BCE7E1
:101FC00062681E4B012A1CD11B6813F4003FA8D085
:101FD0001A4EB36823F003031343B360FEF702FB0A
:101FE00041F288380746B368626803F00C03B3EB2C
:101FF000820FA4D0FEF7F6FAC01B4045F3D90320A8
:1020000090E7911E01291B6802D813F0007FDEE7DC
:1020100013F0020FDBE7EAB21A701B6803F00F033C
:10202000AB427FF47EAF90E70449E0688B6823F40D
:10203000E05303438B608BE7003C024000380240D2
:10204000C13B010830000020014B1868704700BFF9
:1020500030000020044B054A9B68C3F38223D35C05
:10206000034A1068D840704700380240D13B01084D
:1020700030000020044B054A9B68C3F34233D35C15
:10208000034A1068D840704700380240D13B01082D
:10209000300000200F2303600B4B9A6802F003020C
:1020A00042609A6802F0F00282609A6802F4E0529C
:1020B000C2609B68DB0803F4E0530361034B1B68B9
:1020C00003F00F030B60704700380240003C0240F1
:1020D000036A23F001030362036A70B544688269EE
:1020E0000D6822F073022A438D6823F002032B430C
:1020F0000C4DA84203D005F58065A8420BD1CD68F0
:1021000023F008032B43D1E9055624F440743543EA
:1021100023F004032C43446082614A6842630362F3
:1021200070BD00BF00000140036A23F480730362A6
:10213000036A70B54468C2690D6822F073022A43CD
:102140008D6823F4007343EA05230D4DA84203D0A4
:1021500005F58065A8420DD1CD6823F4006343EAFC
:102160000523D1E9055624F44054354323F4806314
:1021700044EA05144460C2614A68C263036270BDE8
:1021800000000140036A23F480530362036A30B500
:102190004468C2690D6822F4E64242EA05228D686D
:1021A00023F4005343EA0533084DA84203D005F554
:1021B0008065A84204D14D6924F4804444EA851422
:1021C0004460C2614A680264036230BD000001409D
:1021D00070470368DA6842F00102DA601A6842F078
:1021E00001021A60002070477047704770477047BF
:1021F00003681A69910710B504460ED5DA6892078C
:102200000BD56FF002021A61012202769B699B07CF
:1022100077D0FFF7EAFF0023237623681A69500777
:1022200010D5DA6851070DD56FF004021A61022249
:1022300022769B6913F4407F204668D0FFF7D5FFD4
:102240000023237623681A6912070FD5DA6810076E
:102250000CD56FF008021A6104222276DB69990717
:1022600020465AD0FFF7C1FF0023237623681A695E
:10227000D20610D5DA68D0060DD56FF010021A61BB
:1022800008222276DB6913F4407F20464BD0FFF70B
:10229000ACFF0023237623681A69D10708D5DA68D2
:1022A000D20705D56FF001021A6120460DF022FA1F
:1022B00023681A69100608D5DA68110605D56FF08B
:1022C00080021A61204600F07EF923681A695206DE
:1022D00008D5DA68500605D56FF040021A6120462D
:1022E000FFF785FF23681A69910622D5DA689206FE
:1022F0001FD56FF0200220461A61BDE8104000F0A3
:1023000061B9FFF771FF2046FFF770FF83E7FFF722
:102310006BFF2046FFF76AFF92E7FFF765FF204655
:10232000FFF764FFA0E7FFF75FFF2046FFF75EFFC0
:10233000AFE710BD2E4A0368904212D0B0F1804F33
:102340000FD0A2F57C4290420BD002F58062904201
:1023500007D002F58062904203D002F578429042A5
:1023600019D14A6823F070031343214A904229D0BF
:10237000B0F1804F26D0A2F57C42904222D002F5E7
:10238000806290421ED002F5806290421AD002F51F
:102390007842904216D0174A904213D002F58062DC
:1023A00090420FD002F5806290420BD0A2F5983295
:1023B000904207D002F58062904203D002F580621D
:1023C000904203D1CA6823F44073134303608B68BF
:1023D000C3620B688362064B984203D003F58063A7
:1023E000984201D10B69036301234361704700BF29
:1023F000000001400040014010B50446A0B190F833
:10240000393003F0FF021BB980F83820FFF7E0FEF7
:102410000223206884F83930211DFFF78BFF012348
:1024200084F83930002010BD0120FCE710B50446C7
:10243000A0B190F8393003F0FF021BB980F83820C2
:102440000DF0AEF90223206884F83930211DFFF722
:1024500071FF012384F83930002010BD0120FCE712
:10246000036A23F010030362036A70B5446882694B
:102470000D6822F4E64242EA05228D6823F020032B
:1024800043EA05130D4DA84203D005F58065A84227
:102490000DD1CD6823F0800343EA0513D1E9055639
:1024A00024F44064354323F0400344EA8504446047
:1024B00082614A688263036270BD00BF0000014010
:1024C00038B590F83830012B04464FF0020010D098
:1024D0000123082A84F8383084F839003FD009D81D
:1024E000DAB1042A2AD00123002084F8393084F894
:1024F000380038BD0C2AF6D12068FFF743FE236868
:102500000969DA6942F40062DA61DA6922F4806208
:10251000DA61DA6942EA012230E02068FFF7D8FD8B
:10252000236809699A6942F008029A619A6922F05F
:1025300004029A619A690A439A61D4E72068FFF716
:102540008FFF236809699A6942F400629A619A6967
:1025500022F480629A619A6942EA0122ECE72068DB
:10256000FFF7E2FD23680969DA6942F00802DA61DF
:10257000DA6922F00402DA61DA690A43DA61B2E761
:1025800010B590F83830012B4FF0020318D080F8C6
:10259000393003680C685A68496822F070025A6042
:1025A0005A6822435A609A6822F080029A609A68B8
:1025B0000A439A60012380F83930002380F83830CC
:1025C000184610BD704770470368DA6822F49072AD
:1025D000DA605A6922F001025A61202380F83A3009
:1025E000704700002DE9F8430368C1681A69044682
:1025F00022F440520A431A612569A268D968C06969
:102600002A43656921F416412A4321F00C01024353
:102610000A43DA605A69A16922F440720A43B0F5AC
:10262000004F5A61774A79D1934203D002F5806214
:10263000934243D1FFF71EFD636819254FF06408EC
:1026400068435B00B0FBF3F3B3FBF8F31F01FFF744
:1026500011FD636868435B00B0FBF3F6FFF70AFD0A
:10266000636868435B00B0FBF3F3B3FBF8F308FB6C
:102670001363DB003233B3FBF8F35B0003F4F8764B
:10268000FFF7F8FC626868435200B0FBF2F9FFF70D
:10269000F1FC6368226868435B00B0FBF3F3B3FBB3
:1026A000F8F308FB1393DB003233B3FBF8F303F0CA
:1026B00007033B4433449360BDE8F883FFF7CAFC4B
:1026C000636819254FF0640868435B00B0FBF3F3BF
:1026D000B3FBF8F31F01FFF7BDFC636868435B00C1
:1026E000B0FBF3F6FFF7B6FC636868435B00B0FB32
:1026F000F3F3B3FBF8F308FB1363DB003233B3FBF4
:10270000F8F35B0003F4F876FFF7A4FC6268684313
:102710005200B0FBF2F9FFF79DFCBAE7934202D0FA
:10272000394A93423FD1FFF7A5FC636819254FF062
:10273000640868439B00B0FBF3F3B3FBF8F31E019E
:10274000FFF798FC636868439B00B0FBF3F7FFF763
:1027500091FC636868439B00B0FBF3F3B3FBF8F3B1
:1027600008FB13731B013233B3FBF8F303F0F007DC
:10277000FFF780FC626868439200B0FBF2F9FFF754
:1027800079FC6368226868439B00B0FBF3F3B3FBFA
:10279000F8F308FB13931B013233B3FBF8F303F098
:1027A0000F033B4386E7FFF755FC636819254FF09D
:1027B000640868439B00B0FBF3F3B3FBF8F31E011E
:1027C000FFF748FC636868439B00B0FBF3F7FFF733
:1027D00041FC636868439B00B0FBF3F3B3FBF8F381
:1027E00008FB13731B013233B3FBF8F303F0F0075C
:1027F000FFF730FC626868439200B0FBF2F9FFF724
:1028000029FCBEE7001001400014014010B5044649
:1028100040B390F8393003F0FF021BB980F838203C
:102820000CF0ECFF2268242384F83930D36823F4B9
:102830000053D3602046FFF7D5FE23681A6922F4BF
:1028400090421A615A6922F02A025A61DA6842F407
:102850000052DA6000202023E06384F8393084F8E5
:102860003A3010BD0120FCE77047704710B590F872
:102870003A30222B2FD181680469836A0268B1F54E
:10288000805F1FD15268CCB9C2F3080223F8022B33
:102890008362C48D013CA4B2C4856CB90368DA6854
:1028A00022F49072DA605A6922F001025A61202300
:1028B00080F83A30FFF7D9FF00200DE0D2B223F8BC
:1028C000012BE5E7591C526881620CB91A70E0E7E8
:1028D00002F07F02FAE7022010BD704703681A6811
:1028E000D96870B516075D69044607D1960659D5B3
:1028F0008D0657D5BDE87040FFF7B8BF05F0010061
:1029000001F4907505434DD0D60705D5CD0542BFDE
:10291000E36B43F00103E363530704D518B1E36BA2
:1029200043F00203E363960704D518B1E36B43F069
:102930000403E363150704D518B1E36B43F0080300
:10294000E363E36B4BB3900604D5890602D52046BA
:10295000FFF78CFF23685B69E56B03F0400305F02C
:1029600008051D43204619D0FFF72EFE23685A693B
:1029700052060FD55A69606B22F040025A6148B185
:10298000254B0365FDF750FF38B1606BBDE8704023
:10299000036D18472046FFF7A0FF70BDFFF79DFFAE
:1029A000E563FAE7160628D50D0626D594F83920F2
:1029B000212AF2D1A168226AB1F5805F18D111886D
:1029C000C1F308015960216981B902322262E28CA7
:1029D000013A92B2E284002ADFD1DA6822F0800262
:1029E000DA60DA6842F04002DA60D6E70132EDE7F9
:1029F000511C216212785A60E9E75006CDD54A068B
:102A0000CBD5DA6822F04002DA60202384F839302E
:102A10002046FFF729FFC0E71D2A000808B5806B94
:102A20000023C385C384FFF758FF08BD80B58AB073
:102A300002AFF860B9601346FB7100237B77002377
:102A40007B830023FB834FF480733B8300237B61F4
:102A5000FB68B3F1A04F2AD0BB681B79002B26D1AD
:102A6000FB79002B0BD1BB685B79012B07D1BB68CD
:102A70005B781946F86800F001FA002308E1FB7959
:102A8000012B14D1BB685B785A01FB68134403F532
:102A9000A063DB68BA6852785101FA680A4402F50B
:102AA000A06223F06003D360BB6800225A71BB6848
:102AB0001B69002B19D0BB681B69BA6812891344C3
:102AC000013BBA681289B3FBF2F3FB83FA8B3B8BB1
:102AD0009A420CD93B8BFB83FB8BBA68128902FBB1
:102AE00003F31A46BB681A6101E00123FB83BB684C
:102AF000DB78002B07D0FB8BBA68128902FB03F34B
:102B00001A46BB681A61BB681B69C3F31202FB8BD0
:102B1000DB041946604B0B401A43BB689B7A5B078A
:102B200003F0C043B96849784801F968014401F5E8
:102B3000A06113430B61FB79002B0AD0BB68D968F5
:102B4000BB685B785A01FB68134403F5A0630A462F
:102B50005A61FB6803F580639B6803F00103002B57
:102B60000CBF01230023DBB27B77BB685B785A0183
:102B7000FB68134403F5A0631B68BA6852785101DF
:102B8000FA680A4402F5A06223F000531360BB68A0
:102B90005B785A01FB68134403F5A0631B687A7FD6
:102BA00052071046BA6852785101FA680A4402F591
:102BB000A06203431360BB685B785A01FB6813444F
:102BC00003F5A0631B687B617B6923F080437B6115
:102BD0007B6943F000437B61BB685B785A01FB680B
:102BE000134403F5A0631A467B691360FB79002B3D
:102BF0004DD1BB68DB78002B49D1BB681B69002B2A
:102C000045D0BB68DB79032B30D801A252F823F002
:102C1000212C0008452C0008212C0008452C000818
:102C2000BB681B6903339B087B837A8BFB68DB6A79
:102C30009BB29A421CD9FB689B6943F02002FB6857
:102C40009A6115E0BB681B6903339B087B837A8B11
:102C5000FB6803F580631B699BB29A420AD9FB6843
:102C60009B6943F08062FB689A6103E000BF02E069
:102C700000BF00E000BFBB68D968BB685A78BB687A
:102C80001B699BB200200090F86800F04DFA002309
:102C900018462037BD4680BD0000F81F80B483B0C1
:102CA00000AF78607B6803F580635B699BB2184670
:102CB0000C37BD465DF8047B704780B485B000AF2B
:102CC00078600B46FB700023FB60FB785A017B6841
:102CD000134403F5A0631B689B0C03F00303002B54
:102CE0000BD0FB785A017B68134403F5A0631B6883
:102CF0009B0C03F00303022B5CD1FB785A017B6829
:102D0000134403F5A0631B68FA7851017A680A44FA
:102D100002F5A06243F0804313607B68DB6A03F432
:102D20007F03002B33D1FB785A017B68134403F5F2
:102D3000A0631B68FA7851017A680A4402F5A06220
:102D400023F000431360FB785A017B68134403F5BA
:102D5000A0631B68FA7851017A680A4402F5A06200
:102D600043F000431360FB680133FB60FB68B3F57D
:102D70007A7F1DD8FB785A017B68134403F5A06362
:102D80001B6803F00043B3F1004FECD06FE0FB7819
:102D90005A017B68134403F5A0631B68FA7851015C
:102DA0007A680A4402F5A06243F0004313605EE0D3
:102DB00000BF5CE0FB785A017B68134403F5A06315
:102DC0001B68FA7851017A680A4402F5A06243F060
:102DD000804313607B6803F580631B699BB2002B03
:102DE00033D1FB785A017B68134403F5A0631B6859
:102DF000FA7851017A680A4402F5A06223F0004390
:102E00001360FB785A017B68134403F5A0631B68C9
:102E1000FA7851017A680A4402F5A06243F000434F
:102E20001360FB680133FB60FB68B3F57A7F1DD844
:102E3000FB785A017B68134403F5A0631B6803F019
:102E40000043B3F1004FECD011E0FB785A017B68EE
:102E5000134403F5A0631B68FA7851017A680A44A9
:102E600002F5A06243F00043136000E000BF0023BE
:102E700018461437BD465DF8047B704780B485B0B2
:102E800000AF78600B46FB700123FB730023BB602F
:102E9000FB7BDB041A46154B1340FA7851017A6824
:102EA0000A4402F5A06243F000431361FB785A0123
:102EB0007B68134403F5A0631B68BB60BB6823F009
:102EC0008043BB60BB6843F00043BB60FB785A01A2
:102ED0007B68134403F5A0631A46BB6813600023A4
:102EE00018461437BD465DF8047B70470000F81F94
:102EF00080B586B000AF786000233B61786800F051
:102F0000D3F81021786800F0EDF8786800F0FCF84C
:102F10000023FB751FE0FB7D5A017B68134403F51A
:102F2000A0631B68FB60FB6843F08043FB60FB68A9
:102F300023F00043FB60FB6823F40043FB60FB7D50
:102F40005A017B68134403F5A0631A46FB681360BB
:102F5000FB7D0133FB75FB7D0F2BDCD90023FB755B
:102F600034E0FB7D5A017B68134403F5A0631B68C2
:102F7000FB60FB6843F08043FB60FB6843F0004369
:102F8000FB60FB6823F40043FB60FB7D5A017B6818
:102F9000134403F5A0631A46FB6813603B690133D1
:102FA0003B613B69B3F57A7F0CD8FB7D5A017B68A6
:102FB000134403F5A0631B6803F00043B3F1004F13
:102FC000ECD000E000BFFB7D0133FB75FB7D0F2BD8
:102FD000C7D97B6803F580631A464FF0FF3353610E
:102FE0007B684FF0FF325A61786800F057F8002391
:102FF00018461837BD4680BD0A4B013B0FD0026909
:10300000002AFADA0369074A43F001030361013A2F
:1030100005D0036913F00103F9D118467047032066
:10302000704700BF410D030084B038B505AD85E899
:103030000E000A9B012B044626D1836B23F48033B8
:103040008363C36823F4840323F04003C360C3682D
:1030500023F44013C360119B012B02BFC36843F4E8
:103060008013C360FFF7C8FF089B012B07D1A3683B
:1030700043F00603A360A36843F02003A360BDE808
:103080003840002004B07047C36843F04003C36079
:10309000FFF7B2FF4FF48033A363E5E7836843F0A3
:1030A0000103836000207047836823F0010383607D
:1030B0000020704708B5C368012923F0C043C360EE
:1030C00008D1C36843F00053C3603220FDF790FA83
:1030D000002008BD0029F8D1C36843F08043C360D5
:1030E000F3E70000890141F02001064A0161013A3D
:1030F00005D0036913F02003F9D118467047032067
:10310000704700BF410D03001023064A0361013AD6
:1031100005D0036913F01003F9D118467047032056
:10312000704700BF410D030010B59DF808404CB931
:10313000033300F580509B0800EB023201EB830360
:10314000994201D1002010BD51F8040B1060F7E73F
:103150000332920801EB820200F58050914201D1C6
:1031600008467047036841F8043BF7E74269806905
:1031700010407047406900F001007047D0F80034FB
:1031800023F0030310B5C0F80034D0F8004401F078
:1031900003032343012900F58062C0F8003404D101
:1031A0004BF680335360002010BD022904BF41F26A
:1031B00070735360F7E713B5D0F840340193019B67
:1031C00023F02E030193019B43F480730446C0F85F
:1031D00040340A20FDF70CFA019B002023F4807391
:1031E000C4F8403402B010BD82B0D0F8403401932E
:1031F000019B23F02E030193019BDA0406D40129DD
:1032000002BF019B43F48053C0F84034019BDB04B0
:1032100005D521B9019B23F48053C0F84034002028
:1032200002B0704784B038B5044605A880E80E00A7
:103230000023C4F8003EA36B23F48023A363A36B95
:1032400023F40023A363A36B43F40013A363079B3E
:10325000032BD4F800343CD1B4F1A04F39D043F063
:103260000403C4F8003410212046FFF73BFF20463A
:10327000FFF74AFF0023069904F5A0624FF0FF30E4
:103280001D4699422AD101212046FFF7ADFFC820F3
:10329000FDF7AEF90023A361B4F1A04F4FF0FF3367
:1032A000636120D18023636203F5C003A362134BE3
:1032B000C4F80031089B1BB9A36943F01003A36154
:1032C000A2690F4B1343A361BDE83840002004B04E
:1032D000704723F00403C4F80034C4E7906001335E
:1032E000D5602032CDE74FF40073636203F1807341
:1032F000A362044BC4F80031DCE700BFE0004000EB
:10330000080020A30003E00082B0D0F8403401930D
:103310000198C0F3414002B0704700F580608068BA
:1033200080B270472DE9704100F5A06404EB4114B0
:103330009DF818504FF0FF36A66056B2032D19D8ED
:10334000DFE805F00258025140F29D4C002EC4F80F
:103350000CC006DAD4F80CC04CF4807CC4F80CC065
:1033600008E0B0F1A04F05D0D4F80CC04CF0600CD0
:10337000C4F80CC0D0F818844FF0010C9B05D202A1
:103380000CFA01F103F0FE5302F4F04241EA0801A5
:103390001A439DF81430C0F818148169022BBDF847
:1033A0001C3041F00071C3F30A03816143EA020358
:1033B00006F400414FEA854243EA010302F4402249
:1033C00000F5806E43EA02030CBF4FF4003000208A
:1033D00003432360032D02BF236843F0005323609F
:1033E0000020BDE8708140F29D6C002EC4F80CC036
:1033F000C0DAAFE740F2252CC4F80CC0002EBEBFE7
:10340000D4F80CC04CF4C07CC4F80CC0B2E7002067
:1034100070470000F8B5D0F87433DC69227B0546AC
:103420001AB1501E18BF0120F8BDB4F8F810236877
:1034300099424FF0010780F05C81342606FB01437E
:1034400083F8917093F89030082B72D8DFE813F06E
:10345000090071005100AB001B00F1007100710008
:103460004D01AB480CF000FF0A200CF015FFB4F83A
:10347000F830342202FB0343042283F89020D5F86D
:10348000B833C4F8FC30B4F8F810342606FB014217
:103490009F32C9B2284600F0DFFC002840F0C1800E
:1034A000B4F8F8109B4806FB0141A2310CF0DCFE99
:1034B0000A200CF0F1FEB4F8F810974806FB014121
:1034C000AB310CF0D1FE0A200CF0E6FEB4F8F81097
:1034D000924806FB0141BC310CF0C6FE0A200CF0FC
:1034E000DBFEB4F8F83006FB0344022384F8903086
:1034F0001FE0C9B200F056FC30BBB4F8F8303422FB
:1035000002FB034393F89220DAB10122844883F846
:10351000C1200CF0A9FE0A200CF0BEFEB4F8F83071
:10352000342202FB03440323A4F89030002384F8E0
:103530009230D5F8C8030022042103F063FC012077
:1035400072E783F8C120E9E7022820D1B4F8F83007
:10355000342202FB034393F89220022A13D0012263
:10356000704883F8C1200CF07FFE0A200CF094FE16
:10357000B4F8F830342202FB034440F20513A4F8F7
:1035800090300223D3E7002283F8C120F0E704281B
:10359000CFD1B4F8F830342202FB034440F20123C7
:1035A000A4F89030C5E706FB01429432C9B200F09E
:1035B0001CFCB0BBB4F8F83006FB034393F8C12001
:1035C000012A22D1B3F89820D3F8941056485143D9
:1035D0000CF04AFE0A200CF05FFEB4F8F8305348B5
:1035E00006FB0343D3F894100CF03EFE0A200CF0C7
:1035F00053FEB4F8F8304E4806FB0346B6F8981070
:103600000CF032FE0A200CF047FEB4F8F8303422F9
:1036100002FB03420121A2F890100B44A4F8F830F9
:1036200087E7022859D1B4F8F83006FB0344052394
:103630005CE706FB01429C32C9B200F073FC002833
:103640003DD1B4F8F83006FB034696F89C1001F023
:10365000FB02022A0BD1D4F8FC00D5F8B8331B1AB0
:1036600042F20F70834202D886F8902061E7314819
:103670000CF0FAFD0A200CF00FFEB4F8F8302E48DA
:10368000342606FB034393F89D100CF0EDFD0A2051
:103690000CF002FEB4F8F830284806FB034393F818
:1036A0009E100CF0E1FD0A200CF0F6FDB4F8F830A5
:1036B00006FB0346012286F890201344AEE7022859
:1036C0000BD118480CF0D0FD0A200CF0E5FDB4F841
:1036D000F83006FB0344082308E704287FF429AFE9
:1036E000B4F8F83006FB034458E70131A4F8F810A9
:1036F0001FE72773A4F8F8200421D0F8C80303F0CB
:1037000081FB2846D5F8C4330221984738468BE61A
:10371000CC160108D6160108EB160108001701089F
:1037200015170108261701083B1701085B17010848
:103730006E1701088117010891170108AC170108DD
:1037400070B5D0F87423D469A27B022A034602D054
:10375000032A27D062BB2146184600F008FA032846
:1037600015D10023236021781248013121600CF02B
:103770007BFD0A200CF090FD0023226834200225F6
:103780001E46591CDBB29A4204D8002001E00028F2
:10379000E9D070BD00FB034383F8925083F8C16009
:1037A0000B46EEE7002101F009FA08B9E37BA373A9
:1037B0000120EEE7D017010838B5D0F87433DD6981
:1037C0006979044639B101F073FA6979204601F04C
:1037D0008CFA00236B71297941B1204601F068FA17
:1037E0002979204601F081FA00232B71D4F8743333
:1037F000D86928B10CF062FCD4F874330022DA6185
:10380000002038BDF0B5D0F8741385B00979502385
:103810000622054600F00EFDFF2801460ED13E4867
:103820000CF022FDD5F874333C4819680CF01CFDEF
:103830000A200CF031FD022005B0F0BD284600F052
:10384000B5FC4FF48070D5F874630CF02FFCF06178
:1038500095F81F231A2303FB0251044691F948638C
:1038600091F84803B1F84A1303FB0253002EB3F852
:103870005223B4BF6181218193F8501393F95033DF
:10388000ACBFA071E071002BACBFA171E1714FF032
:103890000006A179B8BF62812846A8BF2281C4F87A
:1038A000F860A681A67301F008FAE17960712846F4
:1038B00001F003FA2071284600F062F968223146CF
:1038C00004F190000CF01EFC23890293022795F866
:1038D0001D33A27961790093019795F81C3328462E
:1038E00001F0D7F96389E2792179CDE9017395F87F
:1038F0001D330093284695F81C3301F0CAF921794D
:10390000324628460CF0B5FA6179324628460CF06A
:10391000B0FA304690E700BFED170108F61701082E
:10392000D0F87433F7B5DC69342707FB0145064648
:1039300095F89030062B07D0072B16D0052B27D0F3
:103940000124204603B0F0BD002300931A4600F086
:103950006EFB044678B9012385F89030D6F8C80389
:103960000022042103F04EFAEBE7002300931A46ED
:1039700000F020FBEDE7022804D1052385F8903004
:103980000124EBE70428FBD1082385F8903021E0DF
:1039900007FB01429C3200F0C5FAE8B995F89C108B
:1039A00013480CF061FC0A200CF076FC95F89D1091
:1039B00010480CF059FC0A200CF06EFC95F89E1093
:1039C0000D480CF051FC0A200CF066FC40F201237B
:1039D000A5F890300224C1E7022806D107480CF070
:1039E00043FC0A200CF058FCCAE70428CBE700BFD0
:1039F0008117010891170108AC1701082617010863
:103A000003780A2B01BFD0F87433DB69342202FB40
:103A1000013103BF91F89100B0FA80F04009002015
:103A2000704710B503780A2B11D1D0F874033423F2
:103A3000902413FB0141C369194401F1340351F887
:103A4000040B42F8040B9942F9D1002010BD02206A
:103A5000FCE72DE9F74390F81E53DDF82880044673
:103A60000E46BDB305780A2D34D1D0F87453ED69F4
:103A7000342707FB015797F890C0BCF1010F29D1FB
:103A80004FF0060C85F80CC087F890C0A5F8FA1026
:103A9000CDF8008000F0CBFA42F21077D4F8B8935A
:103AA00007FB08F731462046FFF73AFF012805D00B
:103AB00001232B73002003B0BDE8F083D4F8B833A2
:103AC000A3EB0903BB4203D894F81E33002BE9D1C2
:103AD00001232B730220EEE72DE9F74390F81E53E4
:103AE000DDF8288004460E46BDB305780A2D34D192
:103AF000D0F87453ED69342707FB015797F890C04D
:103B0000BCF1010F29D14FF0070C85F80CC087F8E4
:103B100090C0A5F8FA10CDF8008000F04BFA42F200
:103B20001077D4F8B89307FB08F731462046FFF723
:103B3000F7FE012805D001232B73002003B0BDE858
:103B4000F083D4F8B833A3EB0903BB4203D894F84D
:103B50001E33002BE9D101232B730220EEE74FF631
:103B600021710022C0E90412114600F0E5BD4FF4B6
:103B700080324FF6A16CC0E904C2012200F0DCBD26
:103B8000D0F874330549DB69054AC3E915120122EF
:103B900083F8502083F85220002070475553424349
:103BA00050403020F7B5D0F87433DC6994F85050A9
:103BB0006B1E06460A2B3FD8DFE813F00B001B00F4
:103BC00040004A00670073009900A100C500D000C2
:103BD000E9000223012284F8611084F8503004F1D6
:103BE0005401637900921F2201F02CF8284603B09B
:103BF000F0BD61790CF02CF90128054611D1E36D77
:103C0000002B37D094F96030002BB4BF0323052379
:103C100084F85030D6F8C8030022022103F0F2F8ED
:103C2000E4E702285DD1012784F85070D6F8C80374
:103C30000022022103F0E6F80125D7E72379628903
:103C4000D4F88C1001F015F8042384F85030F3E711
:103C500021790CF0FDF80128054612D1E36D628947
:103C6000934237D9D4F88C109B1A1144C4F88C10A5
:103C7000E3650BB90723CBE72379304600F0F9FF62
:103C8000B4E70528D8D109232EE0012563792289DC
:103C90000095D4F88C1000F0D5FF062384F850303E
:103CA000A4E761790CF0D4F80128054615D1E36D3D
:103CB000228993420ED9D4F88C109B1A1144C4F86F
:103CC0008C10E365002BD5D063790090304600F06E
:103CD000B9FF9FE70023E365CCE7022801D1052364
:103CE00002E0052DA8D10A2384F850309EE72379FD
:103CF0000D2204F1780100F0BCFF0823A5E721792B
:103D00000CF0A6F801281CD184F8500084F8520069
:103D1000D6F87433DC69304621790CF055F80D285B
:103D20000DD1A26F1E4B9A4209D1E26FA36D9A4248
:103D300005D194F88450002D18BF02256AE70225AA
:103D400068E705289EE7E17900F038FF08B9072306
:103D50007BE704287FF470AF0B2376E7A17900F0AE
:103D60002DFF054688B9617930460CF091F8C0F115
:103D70000100C2B2617930460CF07BF821792A4605
:103D800030460CF076F809235FE70428E2E7FFF7F6
:103D9000E6FE054600287FF429AF01237EE700BF39
:103DA0005553425338B5D0F87433DC6994F8525007
:103DB000012D04D0022D14D00225284638BD002143
:103DC000E16584F86010102204F163000CF09AF9A8
:103DD0000A23A4F86230022384F8505084F8523049
:103DE000EBE7BDE83840FFF7DDBE70B5D0F87433BF
:103DF000DC6994F85250012D164604D0022D1BD0D8
:103E00000125284670BD0823E365802384F86030CF
:103E10001022002104F163000CF074F942F20A53FD
:103E2000A4F86230022384F8523004F1100384F8BD
:103E30005050C4F88C30E4E7FFF7B4FE0546002884
:103E4000DFD1D4F88C2013681BBA33609179D37911
:103E500043EA0123B380D4E770B51646D0F8742343
:103E6000D46994F85250012D0B4604D0022D23D072
:103E70000225284670BD5B01242284F864304FF48B
:103E80001053E265A4F866308022022384F8602093
:103E900041F20A21002284F8523004F11003C4F8E0
:103EA0006920A4F8621084F8652084F8682084F8FA
:103EB0005050C4F88C30DCE7FFF774FE054600284C
:103EC000D7D10146222230460CF01CF9D4F88C30B0
:103ED0001B7803F01F037370D4F88C301B785B09D8
:103EE0003370D4F88C305B78DB09B370D4F88C2055
:103EF00052F8083FC6F803305368C6F80730D4F8C4
:103F00008C3006F10C0103F11002203352F8040B3F
:103F100041F8040B9A42F9D1D4F88C301B6AC6F8E8
:103F20001D30A6E770B5D0F87433DC6994F85230D0
:103F3000012B0E46154604D0022B27D0022318462B
:103F400070BD0E22E265802284F860200022C4F851
:103F5000672040F20A31C4F86B20C4F86F2084F85F
:103F6000652084F868200222A4F8621076014FF4DC
:103F7000606184F8522004F1100284F86460A4F8AF
:103F8000661084F85030C4F88C20D8E7FFF70AFE9A
:103F900003460028D3D1D4F88C20927802F00F0287
:103FA0002A70D4F88C20127B6A70D4F88C20527B53
:103FB000AA70C4E72DE9F0419846D0F87433069F03
:103FC000DC6994F85260012E154605D0022E2AD0E5
:103FD00002263046BDE8F0817B020021E36584F8CB
:103FE0006010102204F163000CF08CF842F60A23F2
:103FF000A4F86230C5F3076384F86530C5F307435E
:1040000084F86630C5F3072384F867307FBA02234B
:1040100084F86850A4F86A7084F8506084F85230CC
:10402000C4F88C80D5E7BDE8F041FFF7BBBD2DE9B2
:10403000F0419846D0F87433069FDC6994F85260DA
:10404000012E154605D0022E2BD002263046BDE8A3
:10405000F0817B02E365802384F860301022002128
:1040600004F163000CF04EF842F60A03A4F8623043
:10407000C5F3076384F86530C5F3074384F86630F9
:10408000C5F3072384F867307FBA022384F86850A9
:10409000A4F86A7084F8506084F85230C4F88C80B8
:1040A000D4E7BDE8F041FFF77DBD00F55F7300F593
:1040B0006E72002143F8041B9342FBD100F58E720F
:1040C00000F54771002302F8013B8A42FBD10370DF
:1040D0004370C0F8B8334023012283714FF48073DA
:1040E00082700283A0F81C330020704770B50D4623
:1040F00088B0044658B919480CF0B6F818480CF0C6
:10410000B3F80A200CF0C8F8022008B070BD0023F4
:10411000C0E9DD3380F8BC23FFF7C7FF0DB1C4F859
:10412000C453104D95E8030001AB83E80300002160
:10413000184602F061FE0835C4F8C8030FCD03AE7F
:104140000FC62B683360214603A802F0A3FDC4F814
:10415000CC0320460BF0D8FD0020D6E72E1801082E
:10416000361801088016010808B5A1B1D0F87833D7
:1041700033B90122C0F87823C0F87013184608BD7F
:1041800007480CF071F807480CF06EF80A200CF0A4
:1041900083F80220F3E702480CF066F80248F3E7E0
:1041A0002E1801084A1801086318010838B590F85C
:1041B00036338B4205460C4624D980F81F13174826
:1041C0000CF052F80A200CF067F81A2101FB045495
:1041D000134894F841130CF047F80A200CF05CF8EF
:1041E00094F842130F480CF03FF80A200CF054F8F2
:1041F00094F843130C480CF037F80A200CF04CF8F4
:10420000002038BD09480CF02FF809480CF02CF8B4
:104210000A200CF041F80220F3E700BF78180108EB
:1042200095180108A4180108B31801082E180108F0
:10423000C218010830B5002490F841538D4201D0D6
:10424000FF290FD190F84253954201D0FF2A09D19E
:1042500090F843539D4203D1E0B230BD0124EBE717
:10426000FF2BF9D01A30002CF8D0FF20F5E710B55D
:1042700004460BF075FD012120460BF0EDFD0020FA
:1042800010BD000070B588B002238DF81F30037890
:1042900004460A2B00F28380DFE813F00B00810054
:1042A0001E00CB01810055008C013B0145015501E9
:1042B000C30190F81E33002B71D001250570C82072
:1042C0000BF0F4FD20460BF071FD00220121D4F823
:1042D000C80302F097FD62E0BD480BF0C5FF0A205D
:1042E0000BF0DAFF64200BF0E1FD20460BF054FDEB
:1042F0000523237084F81D030021204600F0DDFC17
:1043000080216071204600F0D8FCA379029300253B
:1043100094F81D33207101460093802294F81C33D9
:104320000195204600F0B5FCA3796179CDE90153F0
:1043300094F81D3300932A4694F81C33204600F06D
:10434000A8FC2A46C2E74378072B28D8DFE803F009
:10435000042A42585F678AA7082100F0FFFA054641
:10436000E8B994F82733A37101226270CDE90153B3
:1043700094F81D3321790093802294F81C33204651
:1043800000F087FCA3796179CDE9015394F81D33DE
:1043900000932A4694F81C33204600F07AFC002053
:1043A00008B070BD122100F0D9FA0028F7D1B4F896
:1043B0002A1388480BF058FF0A200BF06DFFB4F861
:1043C000281385480BF050FF0A200BF065FF0223ED
:1043D0006370E4E7012100F0D7FB05460028DED139
:1043E00002200BF063FD012184F81C137B480BF0C5
:1043F0003BFF0A200BF050FF03236370A379B5E75E
:10440000092100F004FB0028C9D10423E0E7B0F83B
:10441000341300F0FCFA0028C1D10523D8E790F846
:104420002E1391B100F58E76FF23324600F085FB06
:104430000028B4D131466A480BF016FF0A200BF071
:104440002BFF0623637000220AE0664805910BF0FB
:104450000BFF0A200BF020FF0623059963700A4624
:10446000052134E790F82F1381B100F58E75FF23F5
:104470002A4600F062FB002891D129465A480BF0E9
:10448000F3FE0A200BF008FF0723A1E75748059128
:104490000BF0EAFE0A200BF0FFFE0723DDE790F8A1
:1044A000301329B300F58E75FF232A4600F045FB33
:1044B00000287FF474AF4E4829460BF0D5FE0A2041
:1044C0000BF0EAFE4B480BF0CFFE0A200BF0E4FEA7
:1044D000002384F81F3394F83133012B17D1464859
:1044E0000BF0C2FE0A200BF0D7FE0823237056E71C
:1044F000424805910BF0B8FE0A200BF0CDFE05995D
:10450000D4F8C8030A46052102F07CFCDAE7072349
:10451000ECE7D0F8C433002B3FF441AF01219847BA
:10452000082323708FE790F8371300F03AFB002838
:104530007FF435AF0923237031480BF095FE0A2034
:104540000BF0AAFE2BE7D0F878331BB92D480BF0FF
:104550008BFE27E00023C0F87433D0F8703390F856
:1045600041231979914218BF0023C0F87433EBB18D
:104570009B689847D4F8743370B906222270196882
:1045800021480BF071FE0A200BF086FED4F8C433EC
:1045900003212046984756E70C22227019681B48D1
:1045A0000BF062FE0A200BF077FE4CE70C23037041
:1045B0001748CCE7D0F8745365B32B6998478DF84A
:1045C0001F009DF81F30002B7FF4E9AE0A238DE712
:1045D000E0180108F4180108FD180108061901087F
:1045E0001E19010830190108F316010843190108C2
:1045F00051190108781901088A190108641901087C
:10460000B0190108CB190108E9190108FB190108C3
:104610001B1A01080C2303700D480BF025FE0D48F2
:1046200095E7D0F87433002B3FF4B9AE5B69984737
:10463000B5E6FFF73AFDD4F87433002B3FF4AFAE84
:10464000DB68204698470023C4F87433A7E600BF10
:104650002E180108401A01081FB50446D4F8C813E3
:104660004FF0FF3201A802F0F5FB019B102BF5D1B2
:104670002046FFF707FEF1E7C0F8B8137047D0F8FF
:10468000B8230132C0F8B82302780A2A04D1D0F83E
:1046900074330BB19B691847704710B50378044613
:1046A0007BB9012380F81E33D0F8C4330BB1042149
:1046B0009847D4F8C8030022012102F0A3FB002090
:1046C00010BD0378012B04BF02230370F1E7000043
:1046D00010B504460BF052FB2179204600F005FB93
:1046E0006179204600F001FB002384F81E33D4F8E2
:1046F000C43313B105212046984709480BF0B4FD97
:104700000A200BF0C9FD20460BF02AFB0323D4F846
:10471000C80323700022012102F074FB002010BDA9
:10472000561A010808B500220221D0F8C80302F089
:1047300069FB002008BD000073B58578012D044693
:1047400003D0022D0FD001250AE00223816082816F
:1047500005768370D4F8C8030022032102F052FBCF
:10476000284602B070BD067E731E0A2BEBD8DFE828
:1047700003F0060F253043507D87A1ADB800427984
:1047800000F1100100F027FA022323763546E7E70F
:1047900041790BF05DFB012805462AD1E28A94F9A4
:1047A00010302AB1002BB4BF032305232376D1E7B1
:1047B000002B01DA0923F9E70723F7E7D0F8B8332C
:1047C000C38182890379816800F02CFA042323765F
:1047D000B9E701790BF03CFB01280546EAD0052832
:1047E00007D1D4F8C8030022032102F00BFB0325F4
:1047F000B6E7042DA7D157E00125009543798289BA
:10480000816800F0F8F9D4F8B833E3810623237601
:10481000A6E741790BF01CFB0128064608D10723C7
:10482000D4F8C80323760022032102F0EBFAADE7A7
:10483000052802D10C232376D3E7022808D10523CB
:10484000D4F8C80323760022032102F0DBFA7AE7CA
:1048500004287FF478AF0B23D4F8C8032376002212
:10486000032102F0CFFA0123A37079E70022037934
:10487000114600F0D7F9D4F8B833E3810823A6E74E
:1048800001790BF0E5FA01280CD10D232376D4F839
:10489000C8030022032102F0B5FA00250123A3700A
:1048A00025765DE7042801D10B23C9E705287FF4AD
:1048B0004AAF96E70125009500224379114600F0A2
:1048C0009AF9D4F8B833E3810A23A0E741790BF0D1
:1048D000BFFA0128D9D0022801D10923B0E7042862
:1048E00088E7437E0133DBB2022B437605D80125EE
:1048F0000BF044FA2576A57032E70621D0F8C433D0
:1049000098470023637605480BF0AEFC04480BF093
:10491000ABFC0A200BF0C0FCA5E700BF2E18010875
:104920006E1A010830B40C4619468378BDF8085059
:10493000012B0FD164F07F04047402F47F4406233A
:10494000B4F5407F437440F2094318BF002342820C
:104950008382C5822A4630BCFFF7EEBE37B500F52C
:104960008E730D4600914FF4807200210446FFF7CC
:10497000D9FF002849D194F81C3184F8203394F8E9
:104980001D3194F81F2184F8213394F81E3103EB74
:104990000223A4F8223394F8203184F8243394F8C5
:1049A000213184F8253394F8223184F82633082DF8
:1049B00094F8233184F8273327D994F8252194F8E3
:1049C000243103EB0223A4F8283394F8272194F828
:1049D000263103EB0223A4F82A3394F8292194F812
:1049E000283103EB0223A4F82C3394F82A3184F8FD
:1049F0002E3394F82B3184F82F3394F82C3184F82B
:104A0000303394F82D3184F8313303B030BD2DE9C3
:104A1000F34700F11C040F46009123464FF4007247
:104A200000210546FFF77EFF60BB2B7F85F8323300
:104A30006B7FAE7F85F83333EB7F06EB032695F86B
:104A4000203085F8363395F8213085F8373395F8DE
:104A5000223085F8383395F8233085F83933B6B2EB
:104A600095F82430A5F83463092F85F83A3309D92D
:104A70002B46844609224FF01A08BCF1020F01D0E0
:104A8000964202D802B0BDE8F08721780C440A446F
:104A90006178042992B2F0D1217883F83C136178CF
:104AA00083F83D13A17883F83E13E17883F83F1330
:104AB000217983F84013617983F84113A17983F850
:104AC0004213E17983F84313217A83F8441308FBF6
:104AD0000CF9002193F84073B94201DA964203D8E9
:104AE0000CF1010C1A33C8E727783C443A44677844
:104AF000052F92B2EED14F1C09EBC701294494F85F
:104B000000E081F83EE394F801E081F83FE394F897
:104B100002E081F840E394F803E081F841E394F87F
:104B200005A094F804E00EEB0A2EA1F842E394F8F5
:104B300006E081F844E379B2CCE7F7B500F58E766C
:104B400015461F46009341F4407233460021044647
:104B5000FFF7E8FE78B994F81D31032B0BD194F8D8
:104B60001C41A11EB942A8BF394689B20446A142E0
:104B700003D800232B7003B0F0BD331902349B78A7
:104B800005F8013BA4B2F2E78378012B05D14FF47D
:104B9000A063038200234182436100221146FFF794
:104BA000CBBD8378012B05D14FF410630382002322
:104BB0004182436100221146FFF7BEBD8378012B7D
:104BC00005D14FF48173036100238182C3820022E7
:104BD0001146FFF7B1BD1FB500240B461146082250
:104BE000CDE90224CDE90043224623460BF016F915
:104BF000204604B010BD30B585B090F81D530C466A
:104C0000002D19469DF82030019418BF0023CDE9EE
:104C100002230123009300231A460BF0FFF8002023
:104C200005B030BD30B5002485B0CDE902240D4675
:104C3000012219460195009223460BF0EFF8204619
:104C400005B030BD30B585B090F81D530C46002D31
:104C500019469DF82030019418BF0023CDE90223A6
:104C600001230093002202230BF0D8F8002005B0A6
:104C700030BD30B5002485B0CDE902240D460122B7
:104C800019460195009202230BF0C8F8204605B0A2
:104C900030BD1FB5BDF8204002949DF81C40019422
:104CA0009DF8184000940BF093F8002004B010BD5C
:104CB00008B50BF0A5F8002008BD30B5002300F5BD
:104CC0005F7454F8045B2D04DAB208D400EB83005F
:104CD00041F4004192B2C0F87C13D0B230BD013330
:104CE0000B2BEED14FF6FF72F7E70A2998BF00EBC6
:104CF00081014FF000009EBFD1F87C33C3F30E0357
:104D0000C1F87C3370470000034B1A1803EB800096
:104D10004368107A5B681847DC000020064B1A5C79
:104D200042B901221A541A1803EB8003107A5B6807
:104D30001B68184700207047DC00002030B4054C89
:104D4000251804EB800040688468287AA44630BCAB
:104D5000604700BFDC00002030B4054C251804EB90
:104D600080004068C468287AA44630BC604700BF11
:104D7000DC000020054B10B41C1803EB80004368D6
:104D8000207A1B695DF8044B184700BFDC00002047
:104D900042884378007843EA022340EA03207047C0
:104DA0000B0A017043700B0C090E8370C1707047C1
:104DB000024400F8011B9042FBD170471B4A136864
:104DC00030B563B104689C4207D1546883689C4243
:104DD00003D1946843699C4220D0002400E0012460
:104DE0001369CBB10568AB4207D1556983689D4211
:104DF00003D1956943699D4215D06CB902290CBF56
:104E00000020122030BD02EB03129389B3F5807F9E
:104E100014BF00201020F5E70020F3E7002300294D
:104E2000F1D01020EEE70123F9E700BFB800002021
:104E30001F4AF0B5136806689E4207D1556884681A
:104E4000A54203D145699468A5421BD01469B442B8
:104E500007D157698568AF4203D197694569AF4269
:104E600019D00BB1ACB901231D0102EB031456514B
:104E700085684069A06000206560A08169B14FF439
:104E800080710FE0002341B102EB031189890029F1
:104E9000F5D000200AE00123F5E702EB0311898930
:104EA000013189B202EB0312581C9181F0BD00BFA1
:104EB000B80000200138012815D80C4A010102EB86
:104EC00000108389B3F5807F04D100238381002003
:104ED00050507047002BFAD0013B9BB28381002BCE
:104EE000F5D0002070470220704700BFB8000020B6
:104EF000C3690239023B8B4283BF4389006B01FBCC
:104F0000030000207047C36A026804335289490ACB
:104F1000B1FBF2F1186830B1814202D3091A0833AB
:104F2000F8E758680844704700F10B010022D301EC
:104F300043EA520310F8012B52FA83F38842DAB2A3
:104F4000F5D110467047026810B552B111460B46B4
:104F500011F8014B1F2C0CD93A2CF8D1511C8B4263
:104F600002D04FF0FF3005E01278302AF9D101333A
:104F70000360002010BD01380A4411F8013B00F81D
:104F8000013F9142F9D17047CA7E8B7E032843EAE4
:104F9000022301BF487D0A7D42EA002243EA024320
:104FA00018467047C2F307238A76CB760378032B23
:104FB00001BF120C0A75120A4A7570472DE9F041BB
:104FC000466B00F1380804460123407832464146DA
:104FD000FFF7C2FE0546A8B9A36A226AE070F31A79
:104FE000934202D2A778012F02D82846BDE8F0816B
:104FF000236A60781E44324601234146FFF7ACFE27
:10500000013FF0E70125F0E7C3780BB1FFF7D6BF0A
:105010001846704738B5436B8B4205460C4610D096
:10502000FFF7F2FF60B922466878012305F13801E5
:10503000FFF784FE00281CBF4FF0FF3401206C6393
:1050400038BD0020FCE70000002310B5C3704FF00E
:10505000FF3343630446FFF7DDFF014630BB94F89E
:10506000372294F8363243EA02234AF65522934215
:105070001ED194F83830E92B05D0A36B0E4A03F00B
:10508000FF13934216D104F16E00FFF781FE0B4B24
:1050900020F07F40984207D004F18A00FFF778FEA5
:1050A000074B984218BF0221084610BD0421FBE7B8
:1050B0000321F9E70221F7E7EB0090004641540095
:1050C0004641543301292DE9F04706460C46174660
:1050D00073D9C3698B4270D90378022B3FD0032B5D
:1050E00050D0012B69D101EB5108816A01EB5821A5
:1050F000FFF790FF054638BB06F1380908F1010AB1
:10510000C8F3080814F001041FBF19F8083003F0B1
:105110000F023B0103F0F00314BF1343FBB209F885
:105120000830B16A0123F37001EB5A213046FFF7D2
:1051300071FF054640B9CAF3080A44B1C7F307171F
:1051400009F80A700123F3702846BDE8F08719F8C2
:105150000A30C7F3032723F00F031F43F0E7816AE8
:1051600001EB1421FFF756FF05460028ECD164003F
:1051700006F1380304F4FF7418191F55C7F3072705
:105180004770DFE7816A01EBD411FFF743FF054663
:105190000028D9D1A40006F1380304F4FE741C449D
:1051A0002046FFF7F5FD27F0704700F0704047EA12
:1051B00000012046FFF7F4FDC4E70225C4E70129FA
:1051C000F8B505460C4652D9C36999424FD20378C7
:1051D000022B29D0032B38D0012B48D101EB5106EB
:1051E000816A01EB5621FFF715FF10B14FF0FF3038
:1051F000F8BD771CA96AC6F308062E4401EB5721B7
:10520000284696F83860FFF705FF0028EED1C7F36F
:1052100008073D44E30795F8380046EA00204CBFF4
:105220000009C0F30B00E3E7816A01EB1421FFF7EB
:10523000F1FE0028DAD16400383504F4FF742B192C
:10524000285D5B7840EA0320D2E7816A01EBD41144
:10525000FFF7E0FE0028C9D1A40005F1380004F4EE
:10526000FE742044FFF794FD20F07040C0E7012059
:10527000BEE7B1F5001FF8B506460C4601D3022083
:10528000F8BDCA06FBD1826805684161CAB92B78AE
:10529000022B01D9EB6A9BB92B89B3EB541FEED9D2
:1052A000EB6AF361F369B261002BE8D003EB54239E
:1052B0003835C4F308042C44F36134620020DFE77E
:1052C0001A466F897F02BC42114604D22846FFF776
:1052D0000FFEF061E6E73068FFF771FF431C0246FE
:1052E00006D00128CBD9EB698342C8D9E41BEAE791
:1052F0000120C5E72DE9F041056880460F4671B9E8
:105300006E69EEB1EB69B34298BF01263446EB6992
:105310000134A34217D8012E14D8002406E02846F1
:10532000FFF74DFF0128044603D801242046BDE8BD
:10533000F081431C30D0EB698342F7D83E46E5E765
:105340000126E3E70224D8F800002146FFF737FFE3
:1053500030B10128E9D001301ED0B442D7D1DCE70A
:105360004FF0FF3221462846FFF7ACFE90B957B9FF
:10537000D5E90632023A93426C6110D92B7943F099
:1053800001032B71D2E7224639462846FFF79AFEE1
:105390000028EDD00128C8D14FF0FF34C6E7013B0B
:1053A000AB61EBE773B50C46012C05680646114668
:1053B0002CD9EB69A34229D92AB14FF0FF322846F4
:1053C000FFF780FE40B9214630680194FFF7F7FEF1
:1053D0000199044610B9002002B070BD012815D013
:1053E000431C15D000222846FFF76CFE0028F3D19D
:1053F000D5E90632911E8B4205D20133AB612B7980
:1054000043F001032B71A242DDD8E4E70220E3E779
:105410000120E1E740B1A1F10B03012B04D90F29D1
:1054200002D0006901F028BC7047F8B50446FFF7C8
:10543000EBFD0546002842D12378032B37D127798D
:10544000012F34D104F1380601464FF40072304682
:10545000FFF7AEFC552384F83632AA2384F837329E
:1054600052234122722184F8383084F83930612384
:1054700084F83A3084F83B2084F81E2284F81F32E6
:1054800084F81C1284F81D1204F50870A169FFF756
:1054900087FC616904F50970FFF782FC626A607835
:1054A000013262633B463146FFF756FC257100220C
:1054B00060781146FFF75EFC003818BF0120F8BD88
:1054C00043692DE9F04703F12008C36905468A4680
:1054D00093B1B8F5001F0FD2C8F308090468B9F1F9
:1054E000000F4DD181690133C36139B92389B3EB11
:1054F000581F45D80023EB6104200BE06789013F6A
:1055000017EA58273CD12046FFF759FE01280646E6
:1055100002D80220BDE8F087421C01D10120F9E742
:10552000E369834226D8BAF1000FE3D0A96928467F
:10553000FFF7E0FE0646002835D00128E9D0431CDD
:10554000ECD02046FFF760FD01460028E6D14FF47D
:10555000007204F13800FFF72BFC31462046FFF7BC
:10556000C7FC4FF0010A606363899F420FD3636BEE
:10557000DF1B6763AE6131462046FFF7B9FCE86187
:1055800038344C44C5F814802C620020C2E784F8FB
:1055900003A02046FFF712FD0028BFD1636B013343
:1055A00001376363E0E70720B4E700002DE9F04F1F
:1055B000002185B0D0F800A00446FFF75AFE074648
:1055C000002840F09B804FF0FF334FF0FF0923632A
:1055D000C8460093E1695046FFF71CFD07460028C6
:1055E00040F08C80256A2E78002E00F08B80EA7ABD
:1055F000E52E02F03F03A37103D0100704D50F2B53
:1056000004D0009B236353E00F2B59D194F82F3023
:10561000590643D4720649D5636995F80D90236302
:1056200006F0BF066B7B4B4542D1EA7EAB7E53EA68
:1056300002233DD12F78DAF80CB007F03F077B1E2C
:105640000D275F43304B012213F8011B681815F832
:105650000180407848EA00286AB31F2F039327D8B7
:10566000404601F0ABFA791C02903BF8170001911B
:1056700001F0A4FA029A82421AD10199039B424690
:105680000F4622499942DFD12B785B0603D512B130
:105690003BF8173063B9013E5FFA86F800212046D7
:1056A000FFF70EFF0746002894D027E0B045B9D099
:1056B0004FF0FF08F2E74FF6FF718845E1D0F7E7BA
:1056C000B8F1000F04D12846FFF72EFC484515D04D
:1056D00094F82F7017F0010793D104F1240205F11B
:1056E0000B0115F8013B12F8010B8D42A3EB0003EF
:1056F00002D0002BF5D084E7002B82D1384605B0CC
:10570000BDE8F08F0427F9E7401B01084D1B010895
:105710002DE9F04F90F82F5015F0A00589B0044600
:1057200040F08F800668F26832F81530002B66D1A1
:1057300004F124070C22394605A8FFF71CFC9DF84C
:105740001F30DB0740F186804023DFF83C8284F87D
:105750002F304FF0010A0B2205A93846D6F80C90DD
:10576000FFF709FCBAF1050F5AD9A9F10201534616
:1057700031F8022F002A44D10DF11300072203F063
:105780000F0C0CF13001392988BF0CF137010F2BB8
:1057900000F8011902F1FF324FEA131142D808ABA9
:1057A00013447E2103F8141C04F12301084600234E
:1057B0009A4206D010F801CFBCF1200F03F1010E80
:1057C00032D1072A9CBF08A8801803F1010396BFB5
:1057D00010F8140C20200132072BC854F1D92046B0
:1057E000FFF7E4FE814678BB0AF1010ABAF1640FC3
:1057F000B1D14FF00709484609B0BDE8F08F013537
:1058000092E7102002F0010C0CEB430313F4803FED
:1058100018BF83EA080301384FEA5202F2D1A7E722
:105820005346A9E70B46AAE77346C1E78046012124
:105830002046FFF745FE814610B3B9F1040FD8D0DA
:10584000D9E74FF00609D6E70428D4D19DF81F30D8
:1058500084F82F309DF81F30D4F800A09B0748BF74
:105860000C354FF00001204649BF0D230125B5FB43
:10587000F3F50135FFF7FDFC81460028DDD18046B8
:10588000E1695046FFF7C6FB81460028D5D1236A5F
:105890001B78E52B01D0002BC8D108F10108454544
:1058A000C5D1013D55D061692046A1EB4511FFF7F7
:1058B000E0FC814600289ED13846FFF735FB4FF6C5
:1058C000FF780190E1693046FFF7A4FB814600288C
:1058D00091D1236A019AD6F80CE05A73E9B24FF0DD
:1058E0000F024FF00D0CDA72DFF8A0A018734A1EF9
:1058F0000CFB02F29876D87684461AF8019B404554
:1059000018BF3EF8120003F8090003EB090B0CF175
:10591000010C18BF01324FEA1029002808BF404689
:10592000BCF10D0F8BF80190E7D1404502D03EF855
:1059300012200AB941F0400119700123F3700021CF
:105940002046FFF7BDFD814600287FF454AF013D9E
:10595000B8D1E1693046FFF75DFB814600287FF44E
:105960004AAF01462022206AFFF722FA0B22206A62
:105970003946FFF700FB94F82F30226A03F0180332
:1059800013730123F37036E721100100401B010857
:1059900070B50E46054620B9002333600924204621
:1059A00070BD0368002BF7D01A78002AF4D0D9888C
:1059B00082889142F0D15878FFF7A6F910F00104DF
:1059C000EAD12B68336023B1186901F04CF9002843
:1059D000E5D10F24E3E700002DE9F04F002385B067
:1059E0000B600D461746FFF7AEFA061EC0F2518156
:1059F000AD4B53F82640002C00F04D81206901F09A
:105A000032F9002800F049812C60237807F0FE0766
:105A10007BB16078FFF778F9C2070AD4002F00F055
:105A20003E8110F0040500D00A25284605B0BDE8E7
:105A3000F08F0023F0B223706070FFF76FF910F061
:105A4000010540F02E810FB14307EDD4002120461F
:105A5000FFF7FAFA022840F001816E4604F5FF7163
:105A600004F23E28374611F8040C10B10846FFF73F
:105A70008FF91031884547F8040BF4D1002756F808
:105A8000048BB8F1000F00F0E08041462046FFF79C
:105A9000DBFA012800F2DA8094F8442094F84330CD
:105AA00043EA0223B3F5007F40F0DC8094F84F0016
:105AB00094F84E6056EA002604D104F15C00FFF72A
:105AC00067F9064694F84890266209F1FF33012BE6
:105AD00084F8029000F2C68094F845706781002F28
